{
	"data": {
		"bytecode": {
			"linkReferences": {},
			"object": "60806040523480156200001157600080fd5b506040518060200160405280600081525062000033816200005a60201b60201c565b5062000054620000486200006f60201b60201c565b6200007760201b60201c565b6200049e565b80600290816200006b9190620003b7565b5050565b600033905090565b6000600360009054906101000a900473ffffffffffffffffffffffffffffffffffffffff16905081600360006101000a81548173ffffffffffffffffffffffffffffffffffffffff021916908373ffffffffffffffffffffffffffffffffffffffff1602179055508173ffffffffffffffffffffffffffffffffffffffff168173ffffffffffffffffffffffffffffffffffffffff167f8be0079c531659141344cd1fd0a4f28419497f9722a3daafe3b4186f6b6457e060405160405180910390a35050565b600081519050919050565b7f4e487b7100000000000000000000000000000000000000000000000000000000600052604160045260246000fd5b7f4e487b7100000000000000000000000000000000000000000000000000000000600052602260045260246000fd5b60006002820490506001821680620001bf57607f821691505b602082108103620001d557620001d462000177565b5b50919050565b60008190508160005260206000209050919050565b60006020601f8301049050919050565b600082821b905092915050565b6000600883026200023f7fffffffffffffffffffffffffffffffffffffffffffffffffffffffffffffffff8262000200565b6200024b868362000200565b95508019841693508086168417925050509392505050565b6000819050919050565b6000819050919050565b600062000298620002926200028c8462000263565b6200026d565b62000263565b9050919050565b6000819050919050565b620002b48362000277565b620002cc620002c3826200029f565b8484546200020d565b825550505050565b600090565b620002e3620002d4565b620002f0818484620002a9565b505050565b5b8181101562000318576200030c600082620002d9565b600181019050620002f6565b5050565b601f82111562000367576200033181620001db565b6200033c84620001f0565b810160208510156200034c578190505b620003646200035b85620001f0565b830182620002f5565b50505b505050565b600082821c905092915050565b60006200038c600019846008026200036c565b1980831691505092915050565b6000620003a7838362000379565b9150826002028217905092915050565b620003c2826200013d565b67ffffffffffffffff811115620003de57620003dd62000148565b5b620003ea8254620001a6565b620003f78282856200031c565b600060209050601f8311600181146200042f57600084156200041a578287015190505b62000426858262000399565b86555062000496565b601f1984166200043f86620001db565b60005b82811015620004695784890151825560018201915060208501945060208101905062000442565b8683101562000489578489015162000485601f89168262000379565b8355505b6001600288020188555050505b505050505050565b612f7380620004ae6000396000f3fe608060405234801561001057600080fd5b50600436106100ce5760003560e01c8063715018a61161008c578063a22cb46511610066578063a22cb4651461020f578063e985e9c51461022b578063f242432a1461025b578063f2fde38b14610277576100ce565b8063715018a6146101cb578063731133e9146101d55780638da5cb5b146101f1576100ce565b8062fdd58e146100d357806301ffc9a71461010357806302fe5305146101335780630e89341c1461014f5780632eb2c2d61461017f5780634e1273f41461019b575b600080fd5b6100ed60048036038101906100e89190611869565b610293565b6040516100fa91906118b8565b60405180910390f35b61011d6004803603810190610118919061192b565b61035b565b60405161012a9190611973565b60405180910390f35b61014d60048036038101906101489190611ad4565b61043d565b005b61016960048036038101906101649190611b1d565b610451565b6040516101769190611bc9565b60405180910390f35b61019960048036038101906101949190611d54565b6104e5565b005b6101b560048036038101906101b09190611ee6565b610586565b6040516101c2919061201c565b60405180910390f35b6101d361069f565b005b6101ef60048036038101906101ea919061203e565b6106b3565b005b6101f96106cd565b60405161020691906120d0565b60405180910390f35b61022960048036038101906102249190612117565b6106f7565b005b61024560048036038101906102409190612157565b61070d565b6040516102529190611973565b60405180910390f35b61027560048036038101906102709190612197565b6107a1565b005b610291600480360381019061028c919061222e565b610842565b005b60008073ffffffffffffffffffffffffffffffffffffffff168373ffffffffffffffffffffffffffffffffffffffff1603610303576040517f08c379a00000000000000000000000000000000000000000000000000000000081526004016102fa906122cd565b60405180910390fd5b60008083815260200190815260200160002060008473ffffffffffffffffffffffffffffffffffffffff1673ffffffffffffffffffffffffffffffffffffffff16815260200190815260200160002054905092915050565b60007fd9b67a26000000000000000000000000000000000000000000000000000000007bffffffffffffffffffffffffffffffffffffffffffffffffffffffff1916827bffffffffffffffffffffffffffffffffffffffffffffffffffffffff1916148061042657507f0e89341c000000000000000000000000000000000000000000000000000000007bffffffffffffffffffffffffffffffffffffffffffffffffffffffff1916827bffffffffffffffffffffffffffffffffffffffffffffffffffffffff1916145b806104365750610435826108c5565b5b9050919050565b61044561092f565b61044e816109ad565b50565b6060600280546104609061231c565b80601f016020809104026020016040519081016040528092919081815260200182805461048c9061231c565b80156104d95780601f106104ae576101008083540402835291602001916104d9565b820191906000526020600020905b8154815290600101906020018083116104bc57829003601f168201915b50505050509050919050565b6104ed6109c0565b73ffffffffffffffffffffffffffffffffffffffff168573ffffffffffffffffffffffffffffffffffffffff16148061053357506105328561052d6109c0565b61070d565b5b610572576040517f08c379a0000000000000000000000000000000000000000000000000000000008152600401610569906123bf565b60405180910390fd5b61057f85858585856109c8565b5050505050565b606081518351146105cc576040517f08c379a00000000000000000000000000000000000000000000000000000000081526004016105c390612451565b60405180910390fd5b6000835167ffffffffffffffff8111156105e9576105e86119a9565b5b6040519080825280602002602001820160405280156106175781602001602082028036833780820191505090505b50905060005b84518110156106945761066485828151811061063c5761063b612471565b5b602002602001015185838151811061065757610656612471565b5b6020026020010151610293565b82828151811061067757610676612471565b5b6020026020010181815250508061068d906124cf565b905061061d565b508091505092915050565b6106a761092f565b6106b16000610ce9565b565b6106bb61092f565b6106c784848484610daf565b50505050565b6000600360009054906101000a900473ffffffffffffffffffffffffffffffffffffffff16905090565b6107096107026109c0565b8383610f5f565b5050565b6000600160008473ffffffffffffffffffffffffffffffffffffffff1673ffffffffffffffffffffffffffffffffffffffff16815260200190815260200160002060008373ffffffffffffffffffffffffffffffffffffffff1673ffffffffffffffffffffffffffffffffffffffff16815260200190815260200160002060009054906101000a900460ff16905092915050565b6107a96109c0565b73ffffffffffffffffffffffffffffffffffffffff168573ffffffffffffffffffffffffffffffffffffffff1614806107ef57506107ee856107e96109c0565b61070d565b5b61082e576040517f08c379a0000000000000000000000000000000000000000000000000000000008152600401610825906123bf565b60405180910390fd5b61083b85858585856110cb565b5050505050565b61084a61092f565b600073ffffffffffffffffffffffffffffffffffffffff168173ffffffffffffffffffffffffffffffffffffffff16036108b9576040517f08c379a00000000000000000000000000000000000000000000000000000000081526004016108b090612589565b60405180910390fd5b6108c281610ce9565b50565b60007f01ffc9a7000000000000000000000000000000000000000000000000000000007bffffffffffffffffffffffffffffffffffffffffffffffffffffffff1916827bffffffffffffffffffffffffffffffffffffffffffffffffffffffff1916149050919050565b6109376109c0565b73ffffffffffffffffffffffffffffffffffffffff166109556106cd565b73ffffffffffffffffffffffffffffffffffffffff16146109ab576040517f08c379a00000000000000000000000000000000000000000000000000000000081526004016109a2906125f5565b60405180910390fd5b565b80600290816109bc91906127c1565b5050565b600033905090565b8151835114610a0c576040517f08c379a0000000000000000000000000000000000000000000000000000000008152600401610a0390612905565b60405180910390fd5b600073ffffffffffffffffffffffffffffffffffffffff168473ffffffffffffffffffffffffffffffffffffffff1603610a7b576040517f08c379a0000000000000000000000000000000000000000000000000000000008152600401610a7290612997565b60405180910390fd5b6000610a856109c0565b9050610a95818787878787611366565b60005b8451811015610c46576000858281518110610ab657610ab5612471565b5b602002602001015190506000858381518110610ad557610ad4612471565b5b60200260200101519050600080600084815260200190815260200160002060008b73ffffffffffffffffffffffffffffffffffffffff1673ffffffffffffffffffffffffffffffffffffffff16815260200190815260200160002054905081811015610b76576040517f08c379a0000000000000000000000000000000000000000000000000000000008152600401610b6d90612a29565b60405180910390fd5b81810360008085815260200190815260200160002060008c73ffffffffffffffffffffffffffffffffffffffff1673ffffffffffffffffffffffffffffffffffffffff168152602001908152602001600020819055508160008085815260200190815260200160002060008b73ffffffffffffffffffffffffffffffffffffffff1673ffffffffffffffffffffffffffffffffffffffff1681526020019081526020016000206000828254610c2b9190612a49565b9250508190555050505080610c3f906124cf565b9050610a98565b508473ffffffffffffffffffffffffffffffffffffffff168673ffffffffffffffffffffffffffffffffffffffff168273ffffffffffffffffffffffffffffffffffffffff167f4a39dc06d4c0dbc64b70af90fd698a233a518aa5d07e595d983b8c0526c8f7fb8787604051610cbd929190612a7d565b60405180910390a4610cd381878787878761136e565b610ce1818787878787611376565b505050505050565b6000600360009054906101000a900473ffffffffffffffffffffffffffffffffffffffff16905081600360006101000a81548173ffffffffffffffffffffffffffffffffffffffff021916908373ffffffffffffffffffffffffffffffffffffffff1602179055508173ffffffffffffffffffffffffffffffffffffffff168173ffffffffffffffffffffffffffffffffffffffff167f8be0079c531659141344cd1fd0a4f28419497f9722a3daafe3b4186f6b6457e060405160405180910390a35050565b600073ffffffffffffffffffffffffffffffffffffffff168473ffffffffffffffffffffffffffffffffffffffff1603610e1e576040517f08c379a0000000000000000000000000000000000000000000000000000000008152600401610e1590612b26565b60405180910390fd5b6000610e286109c0565b90506000610e358561154d565b90506000610e428561154d565b9050610e5383600089858589611366565b8460008088815260200190815260200160002060008973ffffffffffffffffffffffffffffffffffffffff1673ffffffffffffffffffffffffffffffffffffffff1681526020019081526020016000206000828254610eb29190612a49565b925050819055508673ffffffffffffffffffffffffffffffffffffffff16600073ffffffffffffffffffffffffffffffffffffffff168473ffffffffffffffffffffffffffffffffffffffff167fc3d58168c5ae7397731d063d5bbf3d657854427343f4c083240f7aacaa2d0f628989604051610f30929190612b46565b60405180910390a4610f478360008985858961136e565b610f56836000898989896115c7565b50505050505050565b8173ffffffffffffffffffffffffffffffffffffffff168373ffffffffffffffffffffffffffffffffffffffff1603610fcd576040517f08c379a0000000000000000000000000000000000000000000000000000000008152600401610fc490612be1565b60405180910390fd5b80600160008573ffffffffffffffffffffffffffffffffffffffff1673ffffffffffffffffffffffffffffffffffffffff16815260200190815260200160002060008473ffffffffffffffffffffffffffffffffffffffff1673ffffffffffffffffffffffffffffffffffffffff16815260200190815260200160002060006101000a81548160ff0219169083151502179055508173ffffffffffffffffffffffffffffffffffffffff168373ffffffffffffffffffffffffffffffffffffffff167f17307eab39ab6107e8899845ad3d59bd9653f200f220920489ca2b5937696c31836040516110be9190611973565b60405180910390a3505050565b600073ffffffffffffffffffffffffffffffffffffffff168473ffffffffffffffffffffffffffffffffffffffff160361113a576040517f08c379a000000000000000000000000000000000000000000000000000000000815260040161113190612997565b60405180910390fd5b60006111446109c0565b905060006111518561154d565b9050600061115e8561154d565b905061116e838989858589611366565b600080600088815260200190815260200160002060008a73ffffffffffffffffffffffffffffffffffffffff1673ffffffffffffffffffffffffffffffffffffffff16815260200190815260200160002054905085811015611205576040517f08c379a00000000000000000000000000000000000000000000000000000000081526004016111fc90612a29565b60405180910390fd5b85810360008089815260200190815260200160002060008b73ffffffffffffffffffffffffffffffffffffffff1673ffffffffffffffffffffffffffffffffffffffff168152602001908152602001600020819055508560008089815260200190815260200160002060008a73ffffffffffffffffffffffffffffffffffffffff1673ffffffffffffffffffffffffffffffffffffffff16815260200190815260200160002060008282546112ba9190612a49565b925050819055508773ffffffffffffffffffffffffffffffffffffffff168973ffffffffffffffffffffffffffffffffffffffff168573ffffffffffffffffffffffffffffffffffffffff167fc3d58168c5ae7397731d063d5bbf3d657854427343f4c083240f7aacaa2d0f628a8a604051611337929190612b46565b60405180910390a461134d848a8a86868a61136e565b61135b848a8a8a8a8a6115c7565b505050505050505050565b505050505050565b505050505050565b6113958473ffffffffffffffffffffffffffffffffffffffff1661179e565b15611545578373ffffffffffffffffffffffffffffffffffffffff1663bc197c8187878686866040518663ffffffff1660e01b81526004016113db959493929190612c56565b6020604051808303816000875af192505050801561141757506040513d601f19601f820116820180604052508101906114149190612cd3565b60015b6114bc57611423612d0d565b806308c379a00361147f5750611437612d2f565b806114425750611481565b806040517f08c379a00000000000000000000000000000000000000000000000000000000081526004016114769190611bc9565b60405180910390fd5b505b6040517f08c379a00000000000000000000000000000000000000000000000000000000081526004016114b390612e31565b60405180910390fd5b63bc197c8160e01b7bffffffffffffffffffffffffffffffffffffffffffffffffffffffff1916817bffffffffffffffffffffffffffffffffffffffffffffffffffffffff191614611543576040517f08c379a000000000000000000000000000000000000000000000000000000000815260040161153a90612ec3565b60405180910390fd5b505b505050505050565b60606000600167ffffffffffffffff81111561156c5761156b6119a9565b5b60405190808252806020026020018201604052801561159a5781602001602082028036833780820191505090505b50905082816000815181106115b2576115b1612471565b5b60200260200101818152505080915050919050565b6115e68473ffffffffffffffffffffffffffffffffffffffff1661179e565b15611796578373ffffffffffffffffffffffffffffffffffffffff1663f23a6e6187878686866040518663ffffffff1660e01b815260040161162c959493929190612ee3565b6020604051808303816000875af192505050801561166857506040513d601f19601f820116820180604052508101906116659190612cd3565b60015b61170d57611674612d0d565b806308c379a0036116d05750611688612d2f565b8061169357506116d2565b806040517f08c379a00000000000000000000000000000000000000000000000000000000081526004016116c79190611bc9565b60405180910390fd5b505b6040517f08c379a000000000000000000000000000000000000000000000000000000000815260040161170490612e31565b60405180910390fd5b63f23a6e6160e01b7bffffffffffffffffffffffffffffffffffffffffffffffffffffffff1916817bffffffffffffffffffffffffffffffffffffffffffffffffffffffff191614611794576040517f08c379a000000000000000000000000000000000000000000000000000000000815260040161178b90612ec3565b60405180910390fd5b505b505050505050565b6000808273ffffffffffffffffffffffffffffffffffffffff163b119050919050565b6000604051905090565b600080fd5b600080fd5b600073ffffffffffffffffffffffffffffffffffffffff82169050919050565b6000611800826117d5565b9050919050565b611810816117f5565b811461181b57600080fd5b50565b60008135905061182d81611807565b92915050565b6000819050919050565b61184681611833565b811461185157600080fd5b50565b6000813590506118638161183d565b92915050565b600080604083850312156118805761187f6117cb565b5b600061188e8582860161181e565b925050602061189f85828601611854565b9150509250929050565b6118b281611833565b82525050565b60006020820190506118cd60008301846118a9565b92915050565b60007fffffffff0000000000000000000000000000000000000000000000000000000082169050919050565b611908816118d3565b811461191357600080fd5b50565b600081359050611925816118ff565b92915050565b600060208284031215611941576119406117cb565b5b600061194f84828501611916565b91505092915050565b60008115159050919050565b61196d81611958565b82525050565b60006020820190506119886000830184611964565b92915050565b600080fd5b600080fd5b6000601f19601f8301169050919050565b7f4e487b7100000000000000000000000000000000000000000000000000000000600052604160045260246000fd5b6119e182611998565b810181811067ffffffffffffffff82111715611a00576119ff6119a9565b5b80604052505050565b6000611a136117c1565b9050611a1f82826119d8565b919050565b600067ffffffffffffffff821115611a3f57611a3e6119a9565b5b611a4882611998565b9050602081019050919050565b82818337600083830152505050565b6000611a77611a7284611a24565b611a09565b905082815260208101848484011115611a9357611a92611993565b5b611a9e848285611a55565b509392505050565b600082601f830112611abb57611aba61198e565b5b8135611acb848260208601611a64565b91505092915050565b600060208284031215611aea57611ae96117cb565b5b600082013567ffffffffffffffff811115611b0857611b076117d0565b5b611b1484828501611aa6565b91505092915050565b600060208284031215611b3357611b326117cb565b5b6000611b4184828501611854565b91505092915050565b600081519050919050565b600082825260208201905092915050565b60005b83811015611b84578082015181840152602081019050611b69565b60008484015250505050565b6000611b9b82611b4a565b611ba58185611b55565b9350611bb5818560208601611b66565b611bbe81611998565b840191505092915050565b60006020820190508181036000830152611be38184611b90565b905092915050565b600067ffffffffffffffff821115611c0657611c056119a9565b5b602082029050602081019050919050565b600080fd5b6000611c2f611c2a84611beb565b611a09565b90508083825260208201905060208402830185811115611c5257611c51611c17565b5b835b81811015611c7b5780611c678882611854565b845260208401935050602081019050611c54565b5050509392505050565b600082601f830112611c9a57611c9961198e565b5b8135611caa848260208601611c1c565b91505092915050565b600067ffffffffffffffff821115611cce57611ccd6119a9565b5b611cd782611998565b9050602081019050919050565b6000611cf7611cf284611cb3565b611a09565b905082815260208101848484011115611d1357611d12611993565b5b611d1e848285611a55565b509392505050565b600082601f830112611d3b57611d3a61198e565b5b8135611d4b848260208601611ce4565b91505092915050565b600080600080600060a08688031215611d7057611d6f6117cb565b5b6000611d7e8882890161181e565b9550506020611d8f8882890161181e565b945050604086013567ffffffffffffffff811115611db057611daf6117d0565b5b611dbc88828901611c85565b935050606086013567ffffffffffffffff811115611ddd57611ddc6117d0565b5b611de988828901611c85565b925050608086013567ffffffffffffffff811115611e0a57611e096117d0565b5b611e1688828901611d26565b9150509295509295909350565b600067ffffffffffffffff821115611e3e57611e3d6119a9565b5b602082029050602081019050919050565b6000611e62611e5d84611e23565b611a09565b90508083825260208201905060208402830185811115611e8557611e84611c17565b5b835b81811015611eae5780611e9a888261181e565b845260208401935050602081019050611e87565b5050509392505050565b600082601f830112611ecd57611ecc61198e565b5b8135611edd848260208601611e4f565b91505092915050565b60008060408385031215611efd57611efc6117cb565b5b600083013567ffffffffffffffff811115611f1b57611f1a6117d0565b5b611f2785828601611eb8565b925050602083013567ffffffffffffffff811115611f4857611f476117d0565b5b611f5485828601611c85565b9150509250929050565b600081519050919050565b600082825260208201905092915050565b6000819050602082019050919050565b611f9381611833565b82525050565b6000611fa58383611f8a565b60208301905092915050565b6000602082019050919050565b6000611fc982611f5e565b611fd38185611f69565b9350611fde83611f7a565b8060005b8381101561200f578151611ff68882611f99565b975061200183611fb1565b925050600181019050611fe2565b5085935050505092915050565b600060208201905081810360008301526120368184611fbe565b905092915050565b60008060008060808587031215612058576120576117cb565b5b60006120668782880161181e565b945050602061207787828801611854565b935050604061208887828801611854565b925050606085013567ffffffffffffffff8111156120a9576120a86117d0565b5b6120b587828801611d26565b91505092959194509250565b6120ca816117f5565b82525050565b60006020820190506120e560008301846120c1565b92915050565b6120f481611958565b81146120ff57600080fd5b50565b600081359050612111816120eb565b92915050565b6000806040838503121561212e5761212d6117cb565b5b600061213c8582860161181e565b925050602061214d85828601612102565b9150509250929050565b6000806040838503121561216e5761216d6117cb565b5b600061217c8582860161181e565b925050602061218d8582860161181e565b9150509250929050565b600080600080600060a086880312156121b3576121b26117cb565b5b60006121c18882890161181e565b95505060206121d28882890161181e565b94505060406121e388828901611854565b93505060606121f488828901611854565b925050608086013567ffffffffffffffff811115612215576122146117d0565b5b61222188828901611d26565b9150509295509295909350565b600060208284031215612244576122436117cb565b5b60006122528482850161181e565b91505092915050565b7f455243313135353a2061646472657373207a65726f206973206e6f742061207660008201527f616c6964206f776e657200000000000000000000000000000000000000000000602082015250565b60006122b7602a83611b55565b91506122c28261225b565b604082019050919050565b600060208201905081810360008301526122e6816122aa565b9050919050565b7f4e487b7100000000000000000000000000000000000000000000000000000000600052602260045260246000fd5b6000600282049050600182168061233457607f821691505b602082108103612347576123466122ed565b5b50919050565b7f455243313135353a2063616c6c6572206973206e6f7420746f6b656e206f776e60008201527f6572206f7220617070726f766564000000000000000000000000000000000000602082015250565b60006123a9602e83611b55565b91506123b48261234d565b604082019050919050565b600060208201905081810360008301526123d88161239c565b9050919050565b7f455243313135353a206163636f756e747320616e6420696473206c656e67746860008201527f206d69736d617463680000000000000000000000000000000000000000000000602082015250565b600061243b602983611b55565b9150612446826123df565b604082019050919050565b6000602082019050818103600083015261246a8161242e565b9050919050565b7f4e487b7100000000000000000000000000000000000000000000000000000000600052603260045260246000fd5b7f4e487b7100000000000000000000000000000000000000000000000000000000600052601160045260246000fd5b60006124da82611833565b91507fffffffffffffffffffffffffffffffffffffffffffffffffffffffffffffffff820361250c5761250b6124a0565b5b600182019050919050565b7f4f776e61626c653a206e6577206f776e657220697320746865207a65726f206160008201527f6464726573730000000000000000000000000000000000000000000000000000602082015250565b6000612573602683611b55565b915061257e82612517565b604082019050919050565b600060208201905081810360008301526125a281612566565b9050919050565b7f4f776e61626c653a2063616c6c6572206973206e6f7420746865206f776e6572600082015250565b60006125df602083611b55565b91506125ea826125a9565b602082019050919050565b6000602082019050818103600083015261260e816125d2565b9050919050565b60008190508160005260206000209050919050565b60006020601f8301049050919050565b600082821b905092915050565b6000600883026126777fffffffffffffffffffffffffffffffffffffffffffffffffffffffffffffffff8261263a565b612681868361263a565b95508019841693508086168417925050509392505050565b6000819050919050565b60006126be6126b96126b484611833565b612699565b611833565b9050919050565b6000819050919050565b6126d8836126a3565b6126ec6126e4826126c5565b848454612647565b825550505050565b600090565b6127016126f4565b61270c8184846126cf565b505050565b5b81811015612730576127256000826126f9565b600181019050612712565b5050565b601f8211156127755761274681612615565b61274f8461262a565b8101602085101561275e578190505b61277261276a8561262a565b830182612711565b50505b505050565b600082821c905092915050565b60006127986000198460080261277a565b1980831691505092915050565b60006127b18383612787565b9150826002028217905092915050565b6127ca82611b4a565b67ffffffffffffffff8111156127e3576127e26119a9565b5b6127ed825461231c565b6127f8828285612734565b600060209050601f83116001811461282b5760008415612819578287015190505b61282385826127a5565b86555061288b565b601f19841661283986612615565b60005b828110156128615784890151825560018201915060208501945060208101905061283c565b8683101561287e578489015161287a601f891682612787565b8355505b6001600288020188555050505b505050505050565b7f455243313135353a2069647320616e6420616d6f756e7473206c656e6774682060008201527f6d69736d61746368000000000000000000000000000000000000000000000000602082015250565b60006128ef602883611b55565b91506128fa82612893565b604082019050919050565b6000602082019050818103600083015261291e816128e2565b9050919050565b7f455243313135353a207472616e7366657220746f20746865207a65726f20616460008201527f6472657373000000000000000000000000000000000000000000000000000000602082015250565b6000612981602583611b55565b915061298c82612925565b604082019050919050565b600060208201905081810360008301526129b081612974565b9050919050565b7f455243313135353a20696e73756666696369656e742062616c616e636520666f60008201527f72207472616e7366657200000000000000000000000000000000000000000000602082015250565b6000612a13602a83611b55565b9150612a1e826129b7565b604082019050919050565b60006020820190508181036000830152612a4281612a06565b9050919050565b6000612a5482611833565b9150612a5f83611833565b9250828201905080821115612a7757612a766124a0565b5b92915050565b60006040820190508181036000830152612a978185611fbe565b90508181036020830152612aab8184611fbe565b90509392505050565b7f455243313135353a206d696e7420746f20746865207a65726f2061646472657360008201527f7300000000000000000000000000000000000000000000000000000000000000602082015250565b6000612b10602183611b55565b9150612b1b82612ab4565b604082019050919050565b60006020820190508181036000830152612b3f81612b03565b9050919050565b6000604082019050612b5b60008301856118a9565b612b6860208301846118a9565b9392505050565b7f455243313135353a2073657474696e6720617070726f76616c2073746174757360008201527f20666f722073656c660000000000000000000000000000000000000000000000602082015250565b6000612bcb602983611b55565b9150612bd682612b6f565b604082019050919050565b60006020820190508181036000830152612bfa81612bbe565b9050919050565b600081519050919050565b600082825260208201905092915050565b6000612c2882612c01565b612c328185612c0c565b9350612c42818560208601611b66565b612c4b81611998565b840191505092915050565b600060a082019050612c6b60008301886120c1565b612c7860208301876120c1565b8181036040830152612c8a8186611fbe565b90508181036060830152612c9e8185611fbe565b90508181036080830152612cb28184612c1d565b90509695505050505050565b600081519050612ccd816118ff565b92915050565b600060208284031215612ce957612ce86117cb565b5b6000612cf784828501612cbe565b91505092915050565b60008160e01c9050919050565b600060033d1115612d2c5760046000803e612d29600051612d00565b90505b90565b600060443d10612dbc57612d416117c1565b60043d036004823e80513d602482011167ffffffffffffffff82111715612d69575050612dbc565b808201805167ffffffffffffffff811115612d875750505050612dbc565b80602083010160043d038501811115612da4575050505050612dbc565b612db3826020018501866119d8565b82955050505050505b90565b7f455243313135353a207472616e7366657220746f206e6f6e2d4552433131353560008201527f526563656976657220696d706c656d656e746572000000000000000000000000602082015250565b6000612e1b603483611b55565b9150612e2682612dbf565b604082019050919050565b60006020820190508181036000830152612e4a81612e0e565b9050919050565b7f455243313135353a204552433131353552656365697665722072656a6563746560008201527f6420746f6b656e73000000000000000000000000000000000000000000000000602082015250565b6000612ead602883611b55565b9150612eb882612e51565b604082019050919050565b60006020820190508181036000830152612edc81612ea0565b9050919050565b600060a082019050612ef860008301886120c1565b612f0560208301876120c1565b612f1260408301866118a9565b612f1f60608301856118a9565b8181036080830152612f318184612c1d565b9050969550505050505056fea2646970667358221220db991c921fb3442a97a7dd59c0f61fcccf3f950e80fb1399377855caaa81435264736f6c63430008120033",
			"opcodes": "PUSH1 0x80 PUSH1 0x40 MSTORE CALLVALUE DUP1 ISZERO PUSH3 0x11 JUMPI PUSH1 0x0 DUP1 REVERT JUMPDEST POP PUSH1 0x40 MLOAD DUP1 PUSH1 0x20 ADD PUSH1 0x40 MSTORE DUP1 PUSH1 0x0 DUP2 MSTORE POP PUSH3 0x33 DUP2 PUSH3 0x5A PUSH1 0x20 SHL PUSH1 0x20 SHR JUMP JUMPDEST POP PUSH3 0x54 PUSH3 0x48 PUSH3 0x6F PUSH1 0x20 SHL PUSH1 0x20 SHR JUMP JUMPDEST PUSH3 0x77 PUSH1 0x20 SHL PUSH1 0x20 SHR JUMP JUMPDEST PUSH3 0x49E JUMP JUMPDEST DUP1 PUSH1 0x2 SWAP1 DUP2 PUSH3 0x6B SWAP2 SWAP1 PUSH3 0x3B7 JUMP JUMPDEST POP POP JUMP JUMPDEST PUSH1 0x0 CALLER SWAP1 POP SWAP1 JUMP JUMPDEST PUSH1 0x0 PUSH1 0x3 PUSH1 0x0 SWAP1 SLOAD SWAP1 PUSH2 0x100 EXP SWAP1 DIV PUSH20 0xFFFFFFFFFFFFFFFFFFFFFFFFFFFFFFFFFFFFFFFF AND SWAP1 POP DUP2 PUSH1 0x3 PUSH1 0x0 PUSH2 0x100 EXP DUP2 SLOAD DUP2 PUSH20 0xFFFFFFFFFFFFFFFFFFFFFFFFFFFFFFFFFFFFFFFF MUL NOT AND SWAP1 DUP4 PUSH20 0xFFFFFFFFFFFFFFFFFFFFFFFFFFFFFFFFFFFFFFFF AND MUL OR SWAP1 SSTORE POP DUP2 PUSH20 0xFFFFFFFFFFFFFFFFFFFFFFFFFFFFFFFFFFFFFFFF AND DUP2 PUSH20 0xFFFFFFFFFFFFFFFFFFFFFFFFFFFFFFFFFFFFFFFF AND PUSH32 0x8BE0079C531659141344CD1FD0A4F28419497F9722A3DAAFE3B4186F6B6457E0 PUSH1 0x40 MLOAD PUSH1 0x40 MLOAD DUP1 SWAP2 SUB SWAP1 LOG3 POP POP JUMP JUMPDEST PUSH1 0x0 DUP2 MLOAD SWAP1 POP SWAP2 SWAP1 POP JUMP JUMPDEST PUSH32 0x4E487B7100000000000000000000000000000000000000000000000000000000 PUSH1 0x0 MSTORE PUSH1 0x41 PUSH1 0x4 MSTORE PUSH1 0x24 PUSH1 0x0 REVERT JUMPDEST PUSH32 0x4E487B7100000000000000000000000000000000000000000000000000000000 PUSH1 0x0 MSTORE PUSH1 0x22 PUSH1 0x4 MSTORE PUSH1 0x24 PUSH1 0x0 REVERT JUMPDEST PUSH1 0x0 PUSH1 0x2 DUP3 DIV SWAP1 POP PUSH1 0x1 DUP3 AND DUP1 PUSH3 0x1BF JUMPI PUSH1 0x7F DUP3 AND SWAP2 POP JUMPDEST PUSH1 0x20 DUP3 LT DUP2 SUB PUSH3 0x1D5 JUMPI PUSH3 0x1D4 PUSH3 0x177 JUMP JUMPDEST JUMPDEST POP SWAP2 SWAP1 POP JUMP JUMPDEST PUSH1 0x0 DUP2 SWAP1 POP DUP2 PUSH1 0x0 MSTORE PUSH1 0x20 PUSH1 0x0 KECCAK256 SWAP1 POP SWAP2 SWAP1 POP JUMP JUMPDEST PUSH1 0x0 PUSH1 0x20 PUSH1 0x1F DUP4 ADD DIV SWAP1 POP SWAP2 SWAP1 POP JUMP JUMPDEST PUSH1 0x0 DUP3 DUP3 SHL SWAP1 POP SWAP3 SWAP2 POP POP JUMP JUMPDEST PUSH1 0x0 PUSH1 0x8 DUP4 MUL PUSH3 0x23F PUSH32 0xFFFFFFFFFFFFFFFFFFFFFFFFFFFFFFFFFFFFFFFFFFFFFFFFFFFFFFFFFFFFFFFF DUP3 PUSH3 0x200 JUMP JUMPDEST PUSH3 0x24B DUP7 DUP4 PUSH3 0x200 JUMP JUMPDEST SWAP6 POP DUP1 NOT DUP5 AND SWAP4 POP DUP1 DUP7 AND DUP5 OR SWAP3 POP POP POP SWAP4 SWAP3 POP POP POP JUMP JUMPDEST PUSH1 0x0 DUP2 SWAP1 POP SWAP2 SWAP1 POP JUMP JUMPDEST PUSH1 0x0 DUP2 SWAP1 POP SWAP2 SWAP1 POP JUMP JUMPDEST PUSH1 0x0 PUSH3 0x298 PUSH3 0x292 PUSH3 0x28C DUP5 PUSH3 0x263 JUMP JUMPDEST PUSH3 0x26D JUMP JUMPDEST PUSH3 0x263 JUMP JUMPDEST SWAP1 POP SWAP2 SWAP1 POP JUMP JUMPDEST PUSH1 0x0 DUP2 SWAP1 POP SWAP2 SWAP1 POP JUMP JUMPDEST PUSH3 0x2B4 DUP4 PUSH3 0x277 JUMP JUMPDEST PUSH3 0x2CC PUSH3 0x2C3 DUP3 PUSH3 0x29F JUMP JUMPDEST DUP5 DUP5 SLOAD PUSH3 0x20D JUMP JUMPDEST DUP3 SSTORE POP POP POP POP JUMP JUMPDEST PUSH1 0x0 SWAP1 JUMP JUMPDEST PUSH3 0x2E3 PUSH3 0x2D4 JUMP JUMPDEST PUSH3 0x2F0 DUP2 DUP5 DUP5 PUSH3 0x2A9 JUMP JUMPDEST POP POP POP JUMP JUMPDEST JUMPDEST DUP2 DUP2 LT ISZERO PUSH3 0x318 JUMPI PUSH3 0x30C PUSH1 0x0 DUP3 PUSH3 0x2D9 JUMP JUMPDEST PUSH1 0x1 DUP2 ADD SWAP1 POP PUSH3 0x2F6 JUMP JUMPDEST POP POP JUMP JUMPDEST PUSH1 0x1F DUP3 GT ISZERO PUSH3 0x367 JUMPI PUSH3 0x331 DUP2 PUSH3 0x1DB JUMP JUMPDEST PUSH3 0x33C DUP5 PUSH3 0x1F0 JUMP JUMPDEST DUP2 ADD PUSH1 0x20 DUP6 LT ISZERO PUSH3 0x34C JUMPI DUP2 SWAP1 POP JUMPDEST PUSH3 0x364 PUSH3 0x35B DUP6 PUSH3 0x1F0 JUMP JUMPDEST DUP4 ADD DUP3 PUSH3 0x2F5 JUMP JUMPDEST POP POP JUMPDEST POP POP POP JUMP JUMPDEST PUSH1 0x0 DUP3 DUP3 SHR SWAP1 POP SWAP3 SWAP2 POP POP JUMP JUMPDEST PUSH1 0x0 PUSH3 0x38C PUSH1 0x0 NOT DUP5 PUSH1 0x8 MUL PUSH3 0x36C JUMP JUMPDEST NOT DUP1 DUP4 AND SWAP2 POP POP SWAP3 SWAP2 POP POP JUMP JUMPDEST PUSH1 0x0 PUSH3 0x3A7 DUP4 DUP4 PUSH3 0x379 JUMP JUMPDEST SWAP2 POP DUP3 PUSH1 0x2 MUL DUP3 OR SWAP1 POP SWAP3 SWAP2 POP POP JUMP JUMPDEST PUSH3 0x3C2 DUP3 PUSH3 0x13D JUMP JUMPDEST PUSH8 0xFFFFFFFFFFFFFFFF DUP2 GT ISZERO PUSH3 0x3DE JUMPI PUSH3 0x3DD PUSH3 0x148 JUMP JUMPDEST JUMPDEST PUSH3 0x3EA DUP3 SLOAD PUSH3 0x1A6 JUMP JUMPDEST PUSH3 0x3F7 DUP3 DUP3 DUP6 PUSH3 0x31C JUMP JUMPDEST PUSH1 0x0 PUSH1 0x20 SWAP1 POP PUSH1 0x1F DUP4 GT PUSH1 0x1 DUP2 EQ PUSH3 0x42F JUMPI PUSH1 0x0 DUP5 ISZERO PUSH3 0x41A JUMPI DUP3 DUP8 ADD MLOAD SWAP1 POP JUMPDEST PUSH3 0x426 DUP6 DUP3 PUSH3 0x399 JUMP JUMPDEST DUP7 SSTORE POP PUSH3 0x496 JUMP JUMPDEST PUSH1 0x1F NOT DUP5 AND PUSH3 0x43F DUP7 PUSH3 0x1DB JUMP JUMPDEST PUSH1 0x0 JUMPDEST DUP3 DUP2 LT ISZERO PUSH3 0x469 JUMPI DUP5 DUP10 ADD MLOAD DUP3 SSTORE PUSH1 0x1 DUP3 ADD SWAP2 POP PUSH1 0x20 DUP6 ADD SWAP5 POP PUSH1 0x20 DUP2 ADD SWAP1 POP PUSH3 0x442 JUMP JUMPDEST DUP7 DUP4 LT ISZERO PUSH3 0x489 JUMPI DUP5 DUP10 ADD MLOAD PUSH3 0x485 PUSH1 0x1F DUP10 AND DUP3 PUSH3 0x379 JUMP JUMPDEST DUP4 SSTORE POP JUMPDEST PUSH1 0x1 PUSH1 0x2 DUP9 MUL ADD DUP9 SSTORE POP POP POP JUMPDEST POP POP POP POP POP POP JUMP JUMPDEST PUSH2 0x2F73 DUP1 PUSH3 0x4AE PUSH1 0x0 CODECOPY PUSH1 0x0 RETURN INVALID PUSH1 0x80 PUSH1 0x40 MSTORE CALLVALUE DUP1 ISZERO PUSH2 0x10 JUMPI PUSH1 0x0 DUP1 REVERT JUMPDEST POP PUSH1 0x4 CALLDATASIZE LT PUSH2 0xCE JUMPI PUSH1 0x0 CALLDATALOAD PUSH1 0xE0 SHR DUP1 PUSH4 0x715018A6 GT PUSH2 0x8C JUMPI DUP1 PUSH4 0xA22CB465 GT PUSH2 0x66 JUMPI DUP1 PUSH4 0xA22CB465 EQ PUSH2 0x20F JUMPI DUP1 PUSH4 0xE985E9C5 EQ PUSH2 0x22B JUMPI DUP1 PUSH4 0xF242432A EQ PUSH2 0x25B JUMPI DUP1 PUSH4 0xF2FDE38B EQ PUSH2 0x277 JUMPI PUSH2 0xCE JUMP JUMPDEST DUP1 PUSH4 0x715018A6 EQ PUSH2 0x1CB JUMPI DUP1 PUSH4 0x731133E9 EQ PUSH2 0x1D5 JUMPI DUP1 PUSH4 0x8DA5CB5B EQ PUSH2 0x1F1 JUMPI PUSH2 0xCE JUMP JUMPDEST DUP1 PUSH3 0xFDD58E EQ PUSH2 0xD3 JUMPI DUP1 PUSH4 0x1FFC9A7 EQ PUSH2 0x103 JUMPI DUP1 PUSH4 0x2FE5305 EQ PUSH2 0x133 JUMPI DUP1 PUSH4 0xE89341C EQ PUSH2 0x14F JUMPI DUP1 PUSH4 0x2EB2C2D6 EQ PUSH2 0x17F JUMPI DUP1 PUSH4 0x4E1273F4 EQ PUSH2 0x19B JUMPI JUMPDEST PUSH1 0x0 DUP1 REVERT JUMPDEST PUSH2 0xED PUSH1 0x4 DUP1 CALLDATASIZE SUB DUP2 ADD SWAP1 PUSH2 0xE8 SWAP2 SWAP1 PUSH2 0x1869 JUMP JUMPDEST PUSH2 0x293 JUMP JUMPDEST PUSH1 0x40 MLOAD PUSH2 0xFA SWAP2 SWAP1 PUSH2 0x18B8 JUMP JUMPDEST PUSH1 0x40 MLOAD DUP1 SWAP2 SUB SWAP1 RETURN JUMPDEST PUSH2 0x11D PUSH1 0x4 DUP1 CALLDATASIZE SUB DUP2 ADD SWAP1 PUSH2 0x118 SWAP2 SWAP1 PUSH2 0x192B JUMP JUMPDEST PUSH2 0x35B JUMP JUMPDEST PUSH1 0x40 MLOAD PUSH2 0x12A SWAP2 SWAP1 PUSH2 0x1973 JUMP JUMPDEST PUSH1 0x40 MLOAD DUP1 SWAP2 SUB SWAP1 RETURN JUMPDEST PUSH2 0x14D PUSH1 0x4 DUP1 CALLDATASIZE SUB DUP2 ADD SWAP1 PUSH2 0x148 SWAP2 SWAP1 PUSH2 0x1AD4 JUMP JUMPDEST PUSH2 0x43D JUMP JUMPDEST STOP JUMPDEST PUSH2 0x169 PUSH1 0x4 DUP1 CALLDATASIZE SUB DUP2 ADD SWAP1 PUSH2 0x164 SWAP2 SWAP1 PUSH2 0x1B1D JUMP JUMPDEST PUSH2 0x451 JUMP JUMPDEST PUSH1 0x40 MLOAD PUSH2 0x176 SWAP2 SWAP1 PUSH2 0x1BC9 JUMP JUMPDEST PUSH1 0x40 MLOAD DUP1 SWAP2 SUB SWAP1 RETURN JUMPDEST PUSH2 0x199 PUSH1 0x4 DUP1 CALLDATASIZE SUB DUP2 ADD SWAP1 PUSH2 0x194 SWAP2 SWAP1 PUSH2 0x1D54 JUMP JUMPDEST PUSH2 0x4E5 JUMP JUMPDEST STOP JUMPDEST PUSH2 0x1B5 PUSH1 0x4 DUP1 CALLDATASIZE SUB DUP2 ADD SWAP1 PUSH2 0x1B0 SWAP2 SWAP1 PUSH2 0x1EE6 JUMP JUMPDEST PUSH2 0x586 JUMP JUMPDEST PUSH1 0x40 MLOAD PUSH2 0x1C2 SWAP2 SWAP1 PUSH2 0x201C JUMP JUMPDEST PUSH1 0x40 MLOAD DUP1 SWAP2 SUB SWAP1 RETURN JUMPDEST PUSH2 0x1D3 PUSH2 0x69F JUMP JUMPDEST STOP JUMPDEST PUSH2 0x1EF PUSH1 0x4 DUP1 CALLDATASIZE SUB DUP2 ADD SWAP1 PUSH2 0x1EA SWAP2 SWAP1 PUSH2 0x203E JUMP JUMPDEST PUSH2 0x6B3 JUMP JUMPDEST STOP JUMPDEST PUSH2 0x1F9 PUSH2 0x6CD JUMP JUMPDEST PUSH1 0x40 MLOAD PUSH2 0x206 SWAP2 SWAP1 PUSH2 0x20D0 JUMP JUMPDEST PUSH1 0x40 MLOAD DUP1 SWAP2 SUB SWAP1 RETURN JUMPDEST PUSH2 0x229 PUSH1 0x4 DUP1 CALLDATASIZE SUB DUP2 ADD SWAP1 PUSH2 0x224 SWAP2 SWAP1 PUSH2 0x2117 JUMP JUMPDEST PUSH2 0x6F7 JUMP JUMPDEST STOP JUMPDEST PUSH2 0x245 PUSH1 0x4 DUP1 CALLDATASIZE SUB DUP2 ADD SWAP1 PUSH2 0x240 SWAP2 SWAP1 PUSH2 0x2157 JUMP JUMPDEST PUSH2 0x70D JUMP JUMPDEST PUSH1 0x40 MLOAD PUSH2 0x252 SWAP2 SWAP1 PUSH2 0x1973 JUMP JUMPDEST PUSH1 0x40 MLOAD DUP1 SWAP2 SUB SWAP1 RETURN JUMPDEST PUSH2 0x275 PUSH1 0x4 DUP1 CALLDATASIZE SUB DUP2 ADD SWAP1 PUSH2 0x270 SWAP2 SWAP1 PUSH2 0x2197 JUMP JUMPDEST PUSH2 0x7A1 JUMP JUMPDEST STOP JUMPDEST PUSH2 0x291 PUSH1 0x4 DUP1 CALLDATASIZE SUB DUP2 ADD SWAP1 PUSH2 0x28C SWAP2 SWAP1 PUSH2 0x222E JUMP JUMPDEST PUSH2 0x842 JUMP JUMPDEST STOP JUMPDEST PUSH1 0x0 DUP1 PUSH20 0xFFFFFFFFFFFFFFFFFFFFFFFFFFFFFFFFFFFFFFFF AND DUP4 PUSH20 0xFFFFFFFFFFFFFFFFFFFFFFFFFFFFFFFFFFFFFFFF AND SUB PUSH2 0x303 JUMPI PUSH1 0x40 MLOAD PUSH32 0x8C379A000000000000000000000000000000000000000000000000000000000 DUP2 MSTORE PUSH1 0x4 ADD PUSH2 0x2FA SWAP1 PUSH2 0x22CD JUMP JUMPDEST PUSH1 0x40 MLOAD DUP1 SWAP2 SUB SWAP1 REVERT JUMPDEST PUSH1 0x0 DUP1 DUP4 DUP2 MSTORE PUSH1 0x20 ADD SWAP1 DUP2 MSTORE PUSH1 0x20 ADD PUSH1 0x0 KECCAK256 PUSH1 0x0 DUP5 PUSH20 0xFFFFFFFFFFFFFFFFFFFFFFFFFFFFFFFFFFFFFFFF AND PUSH20 0xFFFFFFFFFFFFFFFFFFFFFFFFFFFFFFFFFFFFFFFF AND DUP2 MSTORE PUSH1 0x20 ADD SWAP1 DUP2 MSTORE PUSH1 0x20 ADD PUSH1 0x0 KECCAK256 SLOAD SWAP1 POP SWAP3 SWAP2 POP POP JUMP JUMPDEST PUSH1 0x0 PUSH32 0xD9B67A2600000000000000000000000000000000000000000000000000000000 PUSH28 0xFFFFFFFFFFFFFFFFFFFFFFFFFFFFFFFFFFFFFFFFFFFFFFFFFFFFFFFF NOT AND DUP3 PUSH28 0xFFFFFFFFFFFFFFFFFFFFFFFFFFFFFFFFFFFFFFFFFFFFFFFFFFFFFFFF NOT AND EQ DUP1 PUSH2 0x426 JUMPI POP PUSH32 0xE89341C00000000000000000000000000000000000000000000000000000000 PUSH28 0xFFFFFFFFFFFFFFFFFFFFFFFFFFFFFFFFFFFFFFFFFFFFFFFFFFFFFFFF NOT AND DUP3 PUSH28 0xFFFFFFFFFFFFFFFFFFFFFFFFFFFFFFFFFFFFFFFFFFFFFFFFFFFFFFFF NOT AND EQ JUMPDEST DUP1 PUSH2 0x436 JUMPI POP PUSH2 0x435 DUP3 PUSH2 0x8C5 JUMP JUMPDEST JUMPDEST SWAP1 POP SWAP2 SWAP1 POP JUMP JUMPDEST PUSH2 0x445 PUSH2 0x92F JUMP JUMPDEST PUSH2 0x44E DUP2 PUSH2 0x9AD JUMP JUMPDEST POP JUMP JUMPDEST PUSH1 0x60 PUSH1 0x2 DUP1 SLOAD PUSH2 0x460 SWAP1 PUSH2 0x231C JUMP JUMPDEST DUP1 PUSH1 0x1F ADD PUSH1 0x20 DUP1 SWAP2 DIV MUL PUSH1 0x20 ADD PUSH1 0x40 MLOAD SWAP1 DUP2 ADD PUSH1 0x40 MSTORE DUP1 SWAP3 SWAP2 SWAP1 DUP2 DUP2 MSTORE PUSH1 0x20 ADD DUP3 DUP1 SLOAD PUSH2 0x48C SWAP1 PUSH2 0x231C JUMP JUMPDEST DUP1 ISZERO PUSH2 0x4D9 JUMPI DUP1 PUSH1 0x1F LT PUSH2 0x4AE JUMPI PUSH2 0x100 DUP1 DUP4 SLOAD DIV MUL DUP4 MSTORE SWAP2 PUSH1 0x20 ADD SWAP2 PUSH2 0x4D9 JUMP JUMPDEST DUP3 ADD SWAP2 SWAP1 PUSH1 0x0 MSTORE PUSH1 0x20 PUSH1 0x0 KECCAK256 SWAP1 JUMPDEST DUP2 SLOAD DUP2 MSTORE SWAP1 PUSH1 0x1 ADD SWAP1 PUSH1 0x20 ADD DUP1 DUP4 GT PUSH2 0x4BC JUMPI DUP3 SWAP1 SUB PUSH1 0x1F AND DUP3 ADD SWAP2 JUMPDEST POP POP POP POP POP SWAP1 POP SWAP2 SWAP1 POP JUMP JUMPDEST PUSH2 0x4ED PUSH2 0x9C0 JUMP JUMPDEST PUSH20 0xFFFFFFFFFFFFFFFFFFFFFFFFFFFFFFFFFFFFFFFF AND DUP6 PUSH20 0xFFFFFFFFFFFFFFFFFFFFFFFFFFFFFFFFFFFFFFFF AND EQ DUP1 PUSH2 0x533 JUMPI POP PUSH2 0x532 DUP6 PUSH2 0x52D PUSH2 0x9C0 JUMP JUMPDEST PUSH2 0x70D JUMP JUMPDEST JUMPDEST PUSH2 0x572 JUMPI PUSH1 0x40 MLOAD PUSH32 0x8C379A000000000000000000000000000000000000000000000000000000000 DUP2 MSTORE PUSH1 0x4 ADD PUSH2 0x569 SWAP1 PUSH2 0x23BF JUMP JUMPDEST PUSH1 0x40 MLOAD DUP1 SWAP2 SUB SWAP1 REVERT JUMPDEST PUSH2 0x57F DUP6 DUP6 DUP6 DUP6 DUP6 PUSH2 0x9C8 JUMP JUMPDEST POP POP POP POP POP JUMP JUMPDEST PUSH1 0x60 DUP2 MLOAD DUP4 MLOAD EQ PUSH2 0x5CC JUMPI PUSH1 0x40 MLOAD PUSH32 0x8C379A000000000000000000000000000000000000000000000000000000000 DUP2 MSTORE PUSH1 0x4 ADD PUSH2 0x5C3 SWAP1 PUSH2 0x2451 JUMP JUMPDEST PUSH1 0x40 MLOAD DUP1 SWAP2 SUB SWAP1 REVERT JUMPDEST PUSH1 0x0 DUP4 MLOAD PUSH8 0xFFFFFFFFFFFFFFFF DUP2 GT ISZERO PUSH2 0x5E9 JUMPI PUSH2 0x5E8 PUSH2 0x19A9 JUMP JUMPDEST JUMPDEST PUSH1 0x40 MLOAD SWAP1 DUP1 DUP3 MSTORE DUP1 PUSH1 0x20 MUL PUSH1 0x20 ADD DUP3 ADD PUSH1 0x40 MSTORE DUP1 ISZERO PUSH2 0x617 JUMPI DUP2 PUSH1 0x20 ADD PUSH1 0x20 DUP3 MUL DUP1 CALLDATASIZE DUP4 CALLDATACOPY DUP1 DUP3 ADD SWAP2 POP POP SWAP1 POP JUMPDEST POP SWAP1 POP PUSH1 0x0 JUMPDEST DUP5 MLOAD DUP2 LT ISZERO PUSH2 0x694 JUMPI PUSH2 0x664 DUP6 DUP3 DUP2 MLOAD DUP2 LT PUSH2 0x63C JUMPI PUSH2 0x63B PUSH2 0x2471 JUMP JUMPDEST JUMPDEST PUSH1 0x20 MUL PUSH1 0x20 ADD ADD MLOAD DUP6 DUP4 DUP2 MLOAD DUP2 LT PUSH2 0x657 JUMPI PUSH2 0x656 PUSH2 0x2471 JUMP JUMPDEST JUMPDEST PUSH1 0x20 MUL PUSH1 0x20 ADD ADD MLOAD PUSH2 0x293 JUMP JUMPDEST DUP3 DUP3 DUP2 MLOAD DUP2 LT PUSH2 0x677 JUMPI PUSH2 0x676 PUSH2 0x2471 JUMP JUMPDEST JUMPDEST PUSH1 0x20 MUL PUSH1 0x20 ADD ADD DUP2 DUP2 MSTORE POP POP DUP1 PUSH2 0x68D SWAP1 PUSH2 0x24CF JUMP JUMPDEST SWAP1 POP PUSH2 0x61D JUMP JUMPDEST POP DUP1 SWAP2 POP POP SWAP3 SWAP2 POP POP JUMP JUMPDEST PUSH2 0x6A7 PUSH2 0x92F JUMP JUMPDEST PUSH2 0x6B1 PUSH1 0x0 PUSH2 0xCE9 JUMP JUMPDEST JUMP JUMPDEST PUSH2 0x6BB PUSH2 0x92F JUMP JUMPDEST PUSH2 0x6C7 DUP5 DUP5 DUP5 DUP5 PUSH2 0xDAF JUMP JUMPDEST POP POP POP POP JUMP JUMPDEST PUSH1 0x0 PUSH1 0x3 PUSH1 0x0 SWAP1 SLOAD SWAP1 PUSH2 0x100 EXP SWAP1 DIV PUSH20 0xFFFFFFFFFFFFFFFFFFFFFFFFFFFFFFFFFFFFFFFF AND SWAP1 POP SWAP1 JUMP JUMPDEST PUSH2 0x709 PUSH2 0x702 PUSH2 0x9C0 JUMP JUMPDEST DUP4 DUP4 PUSH2 0xF5F JUMP JUMPDEST POP POP JUMP JUMPDEST PUSH1 0x0 PUSH1 0x1 PUSH1 0x0 DUP5 PUSH20 0xFFFFFFFFFFFFFFFFFFFFFFFFFFFFFFFFFFFFFFFF AND PUSH20 0xFFFFFFFFFFFFFFFFFFFFFFFFFFFFFFFFFFFFFFFF AND DUP2 MSTORE PUSH1 0x20 ADD SWAP1 DUP2 MSTORE PUSH1 0x20 ADD PUSH1 0x0 KECCAK256 PUSH1 0x0 DUP4 PUSH20 0xFFFFFFFFFFFFFFFFFFFFFFFFFFFFFFFFFFFFFFFF AND PUSH20 0xFFFFFFFFFFFFFFFFFFFFFFFFFFFFFFFFFFFFFFFF AND DUP2 MSTORE PUSH1 0x20 ADD SWAP1 DUP2 MSTORE PUSH1 0x20 ADD PUSH1 0x0 KECCAK256 PUSH1 0x0 SWAP1 SLOAD SWAP1 PUSH2 0x100 EXP SWAP1 DIV PUSH1 0xFF AND SWAP1 POP SWAP3 SWAP2 POP POP JUMP JUMPDEST PUSH2 0x7A9 PUSH2 0x9C0 JUMP JUMPDEST PUSH20 0xFFFFFFFFFFFFFFFFFFFFFFFFFFFFFFFFFFFFFFFF AND DUP6 PUSH20 0xFFFFFFFFFFFFFFFFFFFFFFFFFFFFFFFFFFFFFFFF AND EQ DUP1 PUSH2 0x7EF JUMPI POP PUSH2 0x7EE DUP6 PUSH2 0x7E9 PUSH2 0x9C0 JUMP JUMPDEST PUSH2 0x70D JUMP JUMPDEST JUMPDEST PUSH2 0x82E JUMPI PUSH1 0x40 MLOAD PUSH32 0x8C379A000000000000000000000000000000000000000000000000000000000 DUP2 MSTORE PUSH1 0x4 ADD PUSH2 0x825 SWAP1 PUSH2 0x23BF JUMP JUMPDEST PUSH1 0x40 MLOAD DUP1 SWAP2 SUB SWAP1 REVERT JUMPDEST PUSH2 0x83B DUP6 DUP6 DUP6 DUP6 DUP6 PUSH2 0x10CB JUMP JUMPDEST POP POP POP POP POP JUMP JUMPDEST PUSH2 0x84A PUSH2 0x92F JUMP JUMPDEST PUSH1 0x0 PUSH20 0xFFFFFFFFFFFFFFFFFFFFFFFFFFFFFFFFFFFFFFFF AND DUP2 PUSH20 0xFFFFFFFFFFFFFFFFFFFFFFFFFFFFFFFFFFFFFFFF AND SUB PUSH2 0x8B9 JUMPI PUSH1 0x40 MLOAD PUSH32 0x8C379A000000000000000000000000000000000000000000000000000000000 DUP2 MSTORE PUSH1 0x4 ADD PUSH2 0x8B0 SWAP1 PUSH2 0x2589 JUMP JUMPDEST PUSH1 0x40 MLOAD DUP1 SWAP2 SUB SWAP1 REVERT JUMPDEST PUSH2 0x8C2 DUP2 PUSH2 0xCE9 JUMP JUMPDEST POP JUMP JUMPDEST PUSH1 0x0 PUSH32 0x1FFC9A700000000000000000000000000000000000000000000000000000000 PUSH28 0xFFFFFFFFFFFFFFFFFFFFFFFFFFFFFFFFFFFFFFFFFFFFFFFFFFFFFFFF NOT AND DUP3 PUSH28 0xFFFFFFFFFFFFFFFFFFFFFFFFFFFFFFFFFFFFFFFFFFFFFFFFFFFFFFFF NOT AND EQ SWAP1 POP SWAP2 SWAP1 POP JUMP JUMPDEST PUSH2 0x937 PUSH2 0x9C0 JUMP JUMPDEST PUSH20 0xFFFFFFFFFFFFFFFFFFFFFFFFFFFFFFFFFFFFFFFF AND PUSH2 0x955 PUSH2 0x6CD JUMP JUMPDEST PUSH20 0xFFFFFFFFFFFFFFFFFFFFFFFFFFFFFFFFFFFFFFFF AND EQ PUSH2 0x9AB JUMPI PUSH1 0x40 MLOAD PUSH32 0x8C379A000000000000000000000000000000000000000000000000000000000 DUP2 MSTORE PUSH1 0x4 ADD PUSH2 0x9A2 SWAP1 PUSH2 0x25F5 JUMP JUMPDEST PUSH1 0x40 MLOAD DUP1 SWAP2 SUB SWAP1 REVERT JUMPDEST JUMP JUMPDEST DUP1 PUSH1 0x2 SWAP1 DUP2 PUSH2 0x9BC SWAP2 SWAP1 PUSH2 0x27C1 JUMP JUMPDEST POP POP JUMP JUMPDEST PUSH1 0x0 CALLER SWAP1 POP SWAP1 JUMP JUMPDEST DUP2 MLOAD DUP4 MLOAD EQ PUSH2 0xA0C JUMPI PUSH1 0x40 MLOAD PUSH32 0x8C379A000000000000000000000000000000000000000000000000000000000 DUP2 MSTORE PUSH1 0x4 ADD PUSH2 0xA03 SWAP1 PUSH2 0x2905 JUMP JUMPDEST PUSH1 0x40 MLOAD DUP1 SWAP2 SUB SWAP1 REVERT JUMPDEST PUSH1 0x0 PUSH20 0xFFFFFFFFFFFFFFFFFFFFFFFFFFFFFFFFFFFFFFFF AND DUP5 PUSH20 0xFFFFFFFFFFFFFFFFFFFFFFFFFFFFFFFFFFFFFFFF AND SUB PUSH2 0xA7B JUMPI PUSH1 0x40 MLOAD PUSH32 0x8C379A000000000000000000000000000000000000000000000000000000000 DUP2 MSTORE PUSH1 0x4 ADD PUSH2 0xA72 SWAP1 PUSH2 0x2997 JUMP JUMPDEST PUSH1 0x40 MLOAD DUP1 SWAP2 SUB SWAP1 REVERT JUMPDEST PUSH1 0x0 PUSH2 0xA85 PUSH2 0x9C0 JUMP JUMPDEST SWAP1 POP PUSH2 0xA95 DUP2 DUP8 DUP8 DUP8 DUP8 DUP8 PUSH2 0x1366 JUMP JUMPDEST PUSH1 0x0 JUMPDEST DUP5 MLOAD DUP2 LT ISZERO PUSH2 0xC46 JUMPI PUSH1 0x0 DUP6 DUP3 DUP2 MLOAD DUP2 LT PUSH2 0xAB6 JUMPI PUSH2 0xAB5 PUSH2 0x2471 JUMP JUMPDEST JUMPDEST PUSH1 0x20 MUL PUSH1 0x20 ADD ADD MLOAD SWAP1 POP PUSH1 0x0 DUP6 DUP4 DUP2 MLOAD DUP2 LT PUSH2 0xAD5 JUMPI PUSH2 0xAD4 PUSH2 0x2471 JUMP JUMPDEST JUMPDEST PUSH1 0x20 MUL PUSH1 0x20 ADD ADD MLOAD SWAP1 POP PUSH1 0x0 DUP1 PUSH1 0x0 DUP5 DUP2 MSTORE PUSH1 0x20 ADD SWAP1 DUP2 MSTORE PUSH1 0x20 ADD PUSH1 0x0 KECCAK256 PUSH1 0x0 DUP12 PUSH20 0xFFFFFFFFFFFFFFFFFFFFFFFFFFFFFFFFFFFFFFFF AND PUSH20 0xFFFFFFFFFFFFFFFFFFFFFFFFFFFFFFFFFFFFFFFF AND DUP2 MSTORE PUSH1 0x20 ADD SWAP1 DUP2 MSTORE PUSH1 0x20 ADD PUSH1 0x0 KECCAK256 SLOAD SWAP1 POP DUP2 DUP2 LT ISZERO PUSH2 0xB76 JUMPI PUSH1 0x40 MLOAD PUSH32 0x8C379A000000000000000000000000000000000000000000000000000000000 DUP2 MSTORE PUSH1 0x4 ADD PUSH2 0xB6D SWAP1 PUSH2 0x2A29 JUMP JUMPDEST PUSH1 0x40 MLOAD DUP1 SWAP2 SUB SWAP1 REVERT JUMPDEST DUP2 DUP2 SUB PUSH1 0x0 DUP1 DUP6 DUP2 MSTORE PUSH1 0x20 ADD SWAP1 DUP2 MSTORE PUSH1 0x20 ADD PUSH1 0x0 KECCAK256 PUSH1 0x0 DUP13 PUSH20 0xFFFFFFFFFFFFFFFFFFFFFFFFFFFFFFFFFFFFFFFF AND PUSH20 0xFFFFFFFFFFFFFFFFFFFFFFFFFFFFFFFFFFFFFFFF AND DUP2 MSTORE PUSH1 0x20 ADD SWAP1 DUP2 MSTORE PUSH1 0x20 ADD PUSH1 0x0 KECCAK256 DUP2 SWAP1 SSTORE POP DUP2 PUSH1 0x0 DUP1 DUP6 DUP2 MSTORE PUSH1 0x20 ADD SWAP1 DUP2 MSTORE PUSH1 0x20 ADD PUSH1 0x0 KECCAK256 PUSH1 0x0 DUP12 PUSH20 0xFFFFFFFFFFFFFFFFFFFFFFFFFFFFFFFFFFFFFFFF AND PUSH20 0xFFFFFFFFFFFFFFFFFFFFFFFFFFFFFFFFFFFFFFFF AND DUP2 MSTORE PUSH1 0x20 ADD SWAP1 DUP2 MSTORE PUSH1 0x20 ADD PUSH1 0x0 KECCAK256 PUSH1 0x0 DUP3 DUP3 SLOAD PUSH2 0xC2B SWAP2 SWAP1 PUSH2 0x2A49 JUMP JUMPDEST SWAP3 POP POP DUP2 SWAP1 SSTORE POP POP POP POP DUP1 PUSH2 0xC3F SWAP1 PUSH2 0x24CF JUMP JUMPDEST SWAP1 POP PUSH2 0xA98 JUMP JUMPDEST POP DUP5 PUSH20 0xFFFFFFFFFFFFFFFFFFFFFFFFFFFFFFFFFFFFFFFF AND DUP7 PUSH20 0xFFFFFFFFFFFFFFFFFFFFFFFFFFFFFFFFFFFFFFFF AND DUP3 PUSH20 0xFFFFFFFFFFFFFFFFFFFFFFFFFFFFFFFFFFFFFFFF AND PUSH32 0x4A39DC06D4C0DBC64B70AF90FD698A233A518AA5D07E595D983B8C0526C8F7FB DUP8 DUP8 PUSH1 0x40 MLOAD PUSH2 0xCBD SWAP3 SWAP2 SWAP1 PUSH2 0x2A7D JUMP JUMPDEST PUSH1 0x40 MLOAD DUP1 SWAP2 SUB SWAP1 LOG4 PUSH2 0xCD3 DUP2 DUP8 DUP8 DUP8 DUP8 DUP8 PUSH2 0x136E JUMP JUMPDEST PUSH2 0xCE1 DUP2 DUP8 DUP8 DUP8 DUP8 DUP8 PUSH2 0x1376 JUMP JUMPDEST POP POP POP POP POP POP JUMP JUMPDEST PUSH1 0x0 PUSH1 0x3 PUSH1 0x0 SWAP1 SLOAD SWAP1 PUSH2 0x100 EXP SWAP1 DIV PUSH20 0xFFFFFFFFFFFFFFFFFFFFFFFFFFFFFFFFFFFFFFFF AND SWAP1 POP DUP2 PUSH1 0x3 PUSH1 0x0 PUSH2 0x100 EXP DUP2 SLOAD DUP2 PUSH20 0xFFFFFFFFFFFFFFFFFFFFFFFFFFFFFFFFFFFFFFFF MUL NOT AND SWAP1 DUP4 PUSH20 0xFFFFFFFFFFFFFFFFFFFFFFFFFFFFFFFFFFFFFFFF AND MUL OR SWAP1 SSTORE POP DUP2 PUSH20 0xFFFFFFFFFFFFFFFFFFFFFFFFFFFFFFFFFFFFFFFF AND DUP2 PUSH20 0xFFFFFFFFFFFFFFFFFFFFFFFFFFFFFFFFFFFFFFFF AND PUSH32 0x8BE0079C531659141344CD1FD0A4F28419497F9722A3DAAFE3B4186F6B6457E0 PUSH1 0x40 MLOAD PUSH1 0x40 MLOAD DUP1 SWAP2 SUB SWAP1 LOG3 POP POP JUMP JUMPDEST PUSH1 0x0 PUSH20 0xFFFFFFFFFFFFFFFFFFFFFFFFFFFFFFFFFFFFFFFF AND DUP5 PUSH20 0xFFFFFFFFFFFFFFFFFFFFFFFFFFFFFFFFFFFFFFFF AND SUB PUSH2 0xE1E JUMPI PUSH1 0x40 MLOAD PUSH32 0x8C379A000000000000000000000000000000000000000000000000000000000 DUP2 MSTORE PUSH1 0x4 ADD PUSH2 0xE15 SWAP1 PUSH2 0x2B26 JUMP JUMPDEST PUSH1 0x40 MLOAD DUP1 SWAP2 SUB SWAP1 REVERT JUMPDEST PUSH1 0x0 PUSH2 0xE28 PUSH2 0x9C0 JUMP JUMPDEST SWAP1 POP PUSH1 0x0 PUSH2 0xE35 DUP6 PUSH2 0x154D JUMP JUMPDEST SWAP1 POP PUSH1 0x0 PUSH2 0xE42 DUP6 PUSH2 0x154D JUMP JUMPDEST SWAP1 POP PUSH2 0xE53 DUP4 PUSH1 0x0 DUP10 DUP6 DUP6 DUP10 PUSH2 0x1366 JUMP JUMPDEST DUP5 PUSH1 0x0 DUP1 DUP9 DUP2 MSTORE PUSH1 0x20 ADD SWAP1 DUP2 MSTORE PUSH1 0x20 ADD PUSH1 0x0 KECCAK256 PUSH1 0x0 DUP10 PUSH20 0xFFFFFFFFFFFFFFFFFFFFFFFFFFFFFFFFFFFFFFFF AND PUSH20 0xFFFFFFFFFFFFFFFFFFFFFFFFFFFFFFFFFFFFFFFF AND DUP2 MSTORE PUSH1 0x20 ADD SWAP1 DUP2 MSTORE PUSH1 0x20 ADD PUSH1 0x0 KECCAK256 PUSH1 0x0 DUP3 DUP3 SLOAD PUSH2 0xEB2 SWAP2 SWAP1 PUSH2 0x2A49 JUMP JUMPDEST SWAP3 POP POP DUP2 SWAP1 SSTORE POP DUP7 PUSH20 0xFFFFFFFFFFFFFFFFFFFFFFFFFFFFFFFFFFFFFFFF AND PUSH1 0x0 PUSH20 0xFFFFFFFFFFFFFFFFFFFFFFFFFFFFFFFFFFFFFFFF AND DUP5 PUSH20 0xFFFFFFFFFFFFFFFFFFFFFFFFFFFFFFFFFFFFFFFF AND PUSH32 0xC3D58168C5AE7397731D063D5BBF3D657854427343F4C083240F7AACAA2D0F62 DUP10 DUP10 PUSH1 0x40 MLOAD PUSH2 0xF30 SWAP3 SWAP2 SWAP1 PUSH2 0x2B46 JUMP JUMPDEST PUSH1 0x40 MLOAD DUP1 SWAP2 SUB SWAP1 LOG4 PUSH2 0xF47 DUP4 PUSH1 0x0 DUP10 DUP6 DUP6 DUP10 PUSH2 0x136E JUMP JUMPDEST PUSH2 0xF56 DUP4 PUSH1 0x0 DUP10 DUP10 DUP10 DUP10 PUSH2 0x15C7 JUMP JUMPDEST POP POP POP POP POP POP POP JUMP JUMPDEST DUP2 PUSH20 0xFFFFFFFFFFFFFFFFFFFFFFFFFFFFFFFFFFFFFFFF AND DUP4 PUSH20 0xFFFFFFFFFFFFFFFFFFFFFFFFFFFFFFFFFFFFFFFF AND SUB PUSH2 0xFCD JUMPI PUSH1 0x40 MLOAD PUSH32 0x8C379A000000000000000000000000000000000000000000000000000000000 DUP2 MSTORE PUSH1 0x4 ADD PUSH2 0xFC4 SWAP1 PUSH2 0x2BE1 JUMP JUMPDEST PUSH1 0x40 MLOAD DUP1 SWAP2 SUB SWAP1 REVERT JUMPDEST DUP1 PUSH1 0x1 PUSH1 0x0 DUP6 PUSH20 0xFFFFFFFFFFFFFFFFFFFFFFFFFFFFFFFFFFFFFFFF AND PUSH20 0xFFFFFFFFFFFFFFFFFFFFFFFFFFFFFFFFFFFFFFFF AND DUP2 MSTORE PUSH1 0x20 ADD SWAP1 DUP2 MSTORE PUSH1 0x20 ADD PUSH1 0x0 KECCAK256 PUSH1 0x0 DUP5 PUSH20 0xFFFFFFFFFFFFFFFFFFFFFFFFFFFFFFFFFFFFFFFF AND PUSH20 0xFFFFFFFFFFFFFFFFFFFFFFFFFFFFFFFFFFFFFFFF AND DUP2 MSTORE PUSH1 0x20 ADD SWAP1 DUP2 MSTORE PUSH1 0x20 ADD PUSH1 0x0 KECCAK256 PUSH1 0x0 PUSH2 0x100 EXP DUP2 SLOAD DUP2 PUSH1 0xFF MUL NOT AND SWAP1 DUP4 ISZERO ISZERO MUL OR SWAP1 SSTORE POP DUP2 PUSH20 0xFFFFFFFFFFFFFFFFFFFFFFFFFFFFFFFFFFFFFFFF AND DUP4 PUSH20 0xFFFFFFFFFFFFFFFFFFFFFFFFFFFFFFFFFFFFFFFF AND PUSH32 0x17307EAB39AB6107E8899845AD3D59BD9653F200F220920489CA2B5937696C31 DUP4 PUSH1 0x40 MLOAD PUSH2 0x10BE SWAP2 SWAP1 PUSH2 0x1973 JUMP JUMPDEST PUSH1 0x40 MLOAD DUP1 SWAP2 SUB SWAP1 LOG3 POP POP POP JUMP JUMPDEST PUSH1 0x0 PUSH20 0xFFFFFFFFFFFFFFFFFFFFFFFFFFFFFFFFFFFFFFFF AND DUP5 PUSH20 0xFFFFFFFFFFFFFFFFFFFFFFFFFFFFFFFFFFFFFFFF AND SUB PUSH2 0x113A JUMPI PUSH1 0x40 MLOAD PUSH32 0x8C379A000000000000000000000000000000000000000000000000000000000 DUP2 MSTORE PUSH1 0x4 ADD PUSH2 0x1131 SWAP1 PUSH2 0x2997 JUMP JUMPDEST PUSH1 0x40 MLOAD DUP1 SWAP2 SUB SWAP1 REVERT JUMPDEST PUSH1 0x0 PUSH2 0x1144 PUSH2 0x9C0 JUMP JUMPDEST SWAP1 POP PUSH1 0x0 PUSH2 0x1151 DUP6 PUSH2 0x154D JUMP JUMPDEST SWAP1 POP PUSH1 0x0 PUSH2 0x115E DUP6 PUSH2 0x154D JUMP JUMPDEST SWAP1 POP PUSH2 0x116E DUP4 DUP10 DUP10 DUP6 DUP6 DUP10 PUSH2 0x1366 JUMP JUMPDEST PUSH1 0x0 DUP1 PUSH1 0x0 DUP9 DUP2 MSTORE PUSH1 0x20 ADD SWAP1 DUP2 MSTORE PUSH1 0x20 ADD PUSH1 0x0 KECCAK256 PUSH1 0x0 DUP11 PUSH20 0xFFFFFFFFFFFFFFFFFFFFFFFFFFFFFFFFFFFFFFFF AND PUSH20 0xFFFFFFFFFFFFFFFFFFFFFFFFFFFFFFFFFFFFFFFF AND DUP2 MSTORE PUSH1 0x20 ADD SWAP1 DUP2 MSTORE PUSH1 0x20 ADD PUSH1 0x0 KECCAK256 SLOAD SWAP1 POP DUP6 DUP2 LT ISZERO PUSH2 0x1205 JUMPI PUSH1 0x40 MLOAD PUSH32 0x8C379A000000000000000000000000000000000000000000000000000000000 DUP2 MSTORE PUSH1 0x4 ADD PUSH2 0x11FC SWAP1 PUSH2 0x2A29 JUMP JUMPDEST PUSH1 0x40 MLOAD DUP1 SWAP2 SUB SWAP1 REVERT JUMPDEST DUP6 DUP2 SUB PUSH1 0x0 DUP1 DUP10 DUP2 MSTORE PUSH1 0x20 ADD SWAP1 DUP2 MSTORE PUSH1 0x20 ADD PUSH1 0x0 KECCAK256 PUSH1 0x0 DUP12 PUSH20 0xFFFFFFFFFFFFFFFFFFFFFFFFFFFFFFFFFFFFFFFF AND PUSH20 0xFFFFFFFFFFFFFFFFFFFFFFFFFFFFFFFFFFFFFFFF AND DUP2 MSTORE PUSH1 0x20 ADD SWAP1 DUP2 MSTORE PUSH1 0x20 ADD PUSH1 0x0 KECCAK256 DUP2 SWAP1 SSTORE POP DUP6 PUSH1 0x0 DUP1 DUP10 DUP2 MSTORE PUSH1 0x20 ADD SWAP1 DUP2 MSTORE PUSH1 0x20 ADD PUSH1 0x0 KECCAK256 PUSH1 0x0 DUP11 PUSH20 0xFFFFFFFFFFFFFFFFFFFFFFFFFFFFFFFFFFFFFFFF AND PUSH20 0xFFFFFFFFFFFFFFFFFFFFFFFFFFFFFFFFFFFFFFFF AND DUP2 MSTORE PUSH1 0x20 ADD SWAP1 DUP2 MSTORE PUSH1 0x20 ADD PUSH1 0x0 KECCAK256 PUSH1 0x0 DUP3 DUP3 SLOAD PUSH2 0x12BA SWAP2 SWAP1 PUSH2 0x2A49 JUMP JUMPDEST SWAP3 POP POP DUP2 SWAP1 SSTORE POP DUP8 PUSH20 0xFFFFFFFFFFFFFFFFFFFFFFFFFFFFFFFFFFFFFFFF AND DUP10 PUSH20 0xFFFFFFFFFFFFFFFFFFFFFFFFFFFFFFFFFFFFFFFF AND DUP6 PUSH20 0xFFFFFFFFFFFFFFFFFFFFFFFFFFFFFFFFFFFFFFFF AND PUSH32 0xC3D58168C5AE7397731D063D5BBF3D657854427343F4C083240F7AACAA2D0F62 DUP11 DUP11 PUSH1 0x40 MLOAD PUSH2 0x1337 SWAP3 SWAP2 SWAP1 PUSH2 0x2B46 JUMP JUMPDEST PUSH1 0x40 MLOAD DUP1 SWAP2 SUB SWAP1 LOG4 PUSH2 0x134D DUP5 DUP11 DUP11 DUP7 DUP7 DUP11 PUSH2 0x136E JUMP JUMPDEST PUSH2 0x135B DUP5 DUP11 DUP11 DUP11 DUP11 DUP11 PUSH2 0x15C7 JUMP JUMPDEST POP POP POP POP POP POP POP POP POP JUMP JUMPDEST POP POP POP POP POP POP JUMP JUMPDEST POP POP POP POP POP POP JUMP JUMPDEST PUSH2 0x1395 DUP5 PUSH20 0xFFFFFFFFFFFFFFFFFFFFFFFFFFFFFFFFFFFFFFFF AND PUSH2 0x179E JUMP JUMPDEST ISZERO PUSH2 0x1545 JUMPI DUP4 PUSH20 0xFFFFFFFFFFFFFFFFFFFFFFFFFFFFFFFFFFFFFFFF AND PUSH4 0xBC197C81 DUP8 DUP8 DUP7 DUP7 DUP7 PUSH1 0x40 MLOAD DUP7 PUSH4 0xFFFFFFFF AND PUSH1 0xE0 SHL DUP2 MSTORE PUSH1 0x4 ADD PUSH2 0x13DB SWAP6 SWAP5 SWAP4 SWAP3 SWAP2 SWAP1 PUSH2 0x2C56 JUMP JUMPDEST PUSH1 0x20 PUSH1 0x40 MLOAD DUP1 DUP4 SUB DUP2 PUSH1 0x0 DUP8 GAS CALL SWAP3 POP POP POP DUP1 ISZERO PUSH2 0x1417 JUMPI POP PUSH1 0x40 MLOAD RETURNDATASIZE PUSH1 0x1F NOT PUSH1 0x1F DUP3 ADD AND DUP3 ADD DUP1 PUSH1 0x40 MSTORE POP DUP2 ADD SWAP1 PUSH2 0x1414 SWAP2 SWAP1 PUSH2 0x2CD3 JUMP JUMPDEST PUSH1 0x1 JUMPDEST PUSH2 0x14BC JUMPI PUSH2 0x1423 PUSH2 0x2D0D JUMP JUMPDEST DUP1 PUSH4 0x8C379A0 SUB PUSH2 0x147F JUMPI POP PUSH2 0x1437 PUSH2 0x2D2F JUMP JUMPDEST DUP1 PUSH2 0x1442 JUMPI POP PUSH2 0x1481 JUMP JUMPDEST DUP1 PUSH1 0x40 MLOAD PUSH32 0x8C379A000000000000000000000000000000000000000000000000000000000 DUP2 MSTORE PUSH1 0x4 ADD PUSH2 0x1476 SWAP2 SWAP1 PUSH2 0x1BC9 JUMP JUMPDEST PUSH1 0x40 MLOAD DUP1 SWAP2 SUB SWAP1 REVERT JUMPDEST POP JUMPDEST PUSH1 0x40 MLOAD PUSH32 0x8C379A000000000000000000000000000000000000000000000000000000000 DUP2 MSTORE PUSH1 0x4 ADD PUSH2 0x14B3 SWAP1 PUSH2 0x2E31 JUMP JUMPDEST PUSH1 0x40 MLOAD DUP1 SWAP2 SUB SWAP1 REVERT JUMPDEST PUSH4 0xBC197C81 PUSH1 0xE0 SHL PUSH28 0xFFFFFFFFFFFFFFFFFFFFFFFFFFFFFFFFFFFFFFFFFFFFFFFFFFFFFFFF NOT AND DUP2 PUSH28 0xFFFFFFFFFFFFFFFFFFFFFFFFFFFFFFFFFFFFFFFFFFFFFFFFFFFFFFFF NOT AND EQ PUSH2 0x1543 JUMPI PUSH1 0x40 MLOAD PUSH32 0x8C379A000000000000000000000000000000000000000000000000000000000 DUP2 MSTORE PUSH1 0x4 ADD PUSH2 0x153A SWAP1 PUSH2 0x2EC3 JUMP JUMPDEST PUSH1 0x40 MLOAD DUP1 SWAP2 SUB SWAP1 REVERT JUMPDEST POP JUMPDEST POP POP POP POP POP POP JUMP JUMPDEST PUSH1 0x60 PUSH1 0x0 PUSH1 0x1 PUSH8 0xFFFFFFFFFFFFFFFF DUP2 GT ISZERO PUSH2 0x156C JUMPI PUSH2 0x156B PUSH2 0x19A9 JUMP JUMPDEST JUMPDEST PUSH1 0x40 MLOAD SWAP1 DUP1 DUP3 MSTORE DUP1 PUSH1 0x20 MUL PUSH1 0x20 ADD DUP3 ADD PUSH1 0x40 MSTORE DUP1 ISZERO PUSH2 0x159A JUMPI DUP2 PUSH1 0x20 ADD PUSH1 0x20 DUP3 MUL DUP1 CALLDATASIZE DUP4 CALLDATACOPY DUP1 DUP3 ADD SWAP2 POP POP SWAP1 POP JUMPDEST POP SWAP1 POP DUP3 DUP2 PUSH1 0x0 DUP2 MLOAD DUP2 LT PUSH2 0x15B2 JUMPI PUSH2 0x15B1 PUSH2 0x2471 JUMP JUMPDEST JUMPDEST PUSH1 0x20 MUL PUSH1 0x20 ADD ADD DUP2 DUP2 MSTORE POP POP DUP1 SWAP2 POP POP SWAP2 SWAP1 POP JUMP JUMPDEST PUSH2 0x15E6 DUP5 PUSH20 0xFFFFFFFFFFFFFFFFFFFFFFFFFFFFFFFFFFFFFFFF AND PUSH2 0x179E JUMP JUMPDEST ISZERO PUSH2 0x1796 JUMPI DUP4 PUSH20 0xFFFFFFFFFFFFFFFFFFFFFFFFFFFFFFFFFFFFFFFF AND PUSH4 0xF23A6E61 DUP8 DUP8 DUP7 DUP7 DUP7 PUSH1 0x40 MLOAD DUP7 PUSH4 0xFFFFFFFF AND PUSH1 0xE0 SHL DUP2 MSTORE PUSH1 0x4 ADD PUSH2 0x162C SWAP6 SWAP5 SWAP4 SWAP3 SWAP2 SWAP1 PUSH2 0x2EE3 JUMP JUMPDEST PUSH1 0x20 PUSH1 0x40 MLOAD DUP1 DUP4 SUB DUP2 PUSH1 0x0 DUP8 GAS CALL SWAP3 POP POP POP DUP1 ISZERO PUSH2 0x1668 JUMPI POP PUSH1 0x40 MLOAD RETURNDATASIZE PUSH1 0x1F NOT PUSH1 0x1F DUP3 ADD AND DUP3 ADD DUP1 PUSH1 0x40 MSTORE POP DUP2 ADD SWAP1 PUSH2 0x1665 SWAP2 SWAP1 PUSH2 0x2CD3 JUMP JUMPDEST PUSH1 0x1 JUMPDEST PUSH2 0x170D JUMPI PUSH2 0x1674 PUSH2 0x2D0D JUMP JUMPDEST DUP1 PUSH4 0x8C379A0 SUB PUSH2 0x16D0 JUMPI POP PUSH2 0x1688 PUSH2 0x2D2F JUMP JUMPDEST DUP1 PUSH2 0x1693 JUMPI POP PUSH2 0x16D2 JUMP JUMPDEST DUP1 PUSH1 0x40 MLOAD PUSH32 0x8C379A000000000000000000000000000000000000000000000000000000000 DUP2 MSTORE PUSH1 0x4 ADD PUSH2 0x16C7 SWAP2 SWAP1 PUSH2 0x1BC9 JUMP JUMPDEST PUSH1 0x40 MLOAD DUP1 SWAP2 SUB SWAP1 REVERT JUMPDEST POP JUMPDEST PUSH1 0x40 MLOAD PUSH32 0x8C379A000000000000000000000000000000000000000000000000000000000 DUP2 MSTORE PUSH1 0x4 ADD PUSH2 0x1704 SWAP1 PUSH2 0x2E31 JUMP JUMPDEST PUSH1 0x40 MLOAD DUP1 SWAP2 SUB SWAP1 REVERT JUMPDEST PUSH4 0xF23A6E61 PUSH1 0xE0 SHL PUSH28 0xFFFFFFFFFFFFFFFFFFFFFFFFFFFFFFFFFFFFFFFFFFFFFFFFFFFFFFFF NOT AND DUP2 PUSH28 0xFFFFFFFFFFFFFFFFFFFFFFFFFFFFFFFFFFFFFFFFFFFFFFFFFFFFFFFF NOT AND EQ PUSH2 0x1794 JUMPI PUSH1 0x40 MLOAD PUSH32 0x8C379A000000000000000000000000000000000000000000000000000000000 DUP2 MSTORE PUSH1 0x4 ADD PUSH2 0x178B SWAP1 PUSH2 0x2EC3 JUMP JUMPDEST PUSH1 0x40 MLOAD DUP1 SWAP2 SUB SWAP1 REVERT JUMPDEST POP JUMPDEST POP POP POP POP POP POP JUMP JUMPDEST PUSH1 0x0 DUP1 DUP3 PUSH20 0xFFFFFFFFFFFFFFFFFFFFFFFFFFFFFFFFFFFFFFFF AND EXTCODESIZE GT SWAP1 POP SWAP2 SWAP1 POP JUMP JUMPDEST PUSH1 0x0 PUSH1 0x40 MLOAD SWAP1 POP SWAP1 JUMP JUMPDEST PUSH1 0x0 DUP1 REVERT JUMPDEST PUSH1 0x0 DUP1 REVERT JUMPDEST PUSH1 0x0 PUSH20 0xFFFFFFFFFFFFFFFFFFFFFFFFFFFFFFFFFFFFFFFF DUP3 AND SWAP1 POP SWAP2 SWAP1 POP JUMP JUMPDEST PUSH1 0x0 PUSH2 0x1800 DUP3 PUSH2 0x17D5 JUMP JUMPDEST SWAP1 POP SWAP2 SWAP1 POP JUMP JUMPDEST PUSH2 0x1810 DUP2 PUSH2 0x17F5 JUMP JUMPDEST DUP2 EQ PUSH2 0x181B JUMPI PUSH1 0x0 DUP1 REVERT JUMPDEST POP JUMP JUMPDEST PUSH1 0x0 DUP2 CALLDATALOAD SWAP1 POP PUSH2 0x182D DUP2 PUSH2 0x1807 JUMP JUMPDEST SWAP3 SWAP2 POP POP JUMP JUMPDEST PUSH1 0x0 DUP2 SWAP1 POP SWAP2 SWAP1 POP JUMP JUMPDEST PUSH2 0x1846 DUP2 PUSH2 0x1833 JUMP JUMPDEST DUP2 EQ PUSH2 0x1851 JUMPI PUSH1 0x0 DUP1 REVERT JUMPDEST POP JUMP JUMPDEST PUSH1 0x0 DUP2 CALLDATALOAD SWAP1 POP PUSH2 0x1863 DUP2 PUSH2 0x183D JUMP JUMPDEST SWAP3 SWAP2 POP POP JUMP JUMPDEST PUSH1 0x0 DUP1 PUSH1 0x40 DUP4 DUP6 SUB SLT ISZERO PUSH2 0x1880 JUMPI PUSH2 0x187F PUSH2 0x17CB JUMP JUMPDEST JUMPDEST PUSH1 0x0 PUSH2 0x188E DUP6 DUP3 DUP7 ADD PUSH2 0x181E JUMP JUMPDEST SWAP3 POP POP PUSH1 0x20 PUSH2 0x189F DUP6 DUP3 DUP7 ADD PUSH2 0x1854 JUMP JUMPDEST SWAP2 POP POP SWAP3 POP SWAP3 SWAP1 POP JUMP JUMPDEST PUSH2 0x18B2 DUP2 PUSH2 0x1833 JUMP JUMPDEST DUP3 MSTORE POP POP JUMP JUMPDEST PUSH1 0x0 PUSH1 0x20 DUP3 ADD SWAP1 POP PUSH2 0x18CD PUSH1 0x0 DUP4 ADD DUP5 PUSH2 0x18A9 JUMP JUMPDEST SWAP3 SWAP2 POP POP JUMP JUMPDEST PUSH1 0x0 PUSH32 0xFFFFFFFF00000000000000000000000000000000000000000000000000000000 DUP3 AND SWAP1 POP SWAP2 SWAP1 POP JUMP JUMPDEST PUSH2 0x1908 DUP2 PUSH2 0x18D3 JUMP JUMPDEST DUP2 EQ PUSH2 0x1913 JUMPI PUSH1 0x0 DUP1 REVERT JUMPDEST POP JUMP JUMPDEST PUSH1 0x0 DUP2 CALLDATALOAD SWAP1 POP PUSH2 0x1925 DUP2 PUSH2 0x18FF JUMP JUMPDEST SWAP3 SWAP2 POP POP JUMP JUMPDEST PUSH1 0x0 PUSH1 0x20 DUP3 DUP5 SUB SLT ISZERO PUSH2 0x1941 JUMPI PUSH2 0x1940 PUSH2 0x17CB JUMP JUMPDEST JUMPDEST PUSH1 0x0 PUSH2 0x194F DUP5 DUP3 DUP6 ADD PUSH2 0x1916 JUMP JUMPDEST SWAP2 POP POP SWAP3 SWAP2 POP POP JUMP JUMPDEST PUSH1 0x0 DUP2 ISZERO ISZERO SWAP1 POP SWAP2 SWAP1 POP JUMP JUMPDEST PUSH2 0x196D DUP2 PUSH2 0x1958 JUMP JUMPDEST DUP3 MSTORE POP POP JUMP JUMPDEST PUSH1 0x0 PUSH1 0x20 DUP3 ADD SWAP1 POP PUSH2 0x1988 PUSH1 0x0 DUP4 ADD DUP5 PUSH2 0x1964 JUMP JUMPDEST SWAP3 SWAP2 POP POP JUMP JUMPDEST PUSH1 0x0 DUP1 REVERT JUMPDEST PUSH1 0x0 DUP1 REVERT JUMPDEST PUSH1 0x0 PUSH1 0x1F NOT PUSH1 0x1F DUP4 ADD AND SWAP1 POP SWAP2 SWAP1 POP JUMP JUMPDEST PUSH32 0x4E487B7100000000000000000000000000000000000000000000000000000000 PUSH1 0x0 MSTORE PUSH1 0x41 PUSH1 0x4 MSTORE PUSH1 0x24 PUSH1 0x0 REVERT JUMPDEST PUSH2 0x19E1 DUP3 PUSH2 0x1998 JUMP JUMPDEST DUP2 ADD DUP2 DUP2 LT PUSH8 0xFFFFFFFFFFFFFFFF DUP3 GT OR ISZERO PUSH2 0x1A00 JUMPI PUSH2 0x19FF PUSH2 0x19A9 JUMP JUMPDEST JUMPDEST DUP1 PUSH1 0x40 MSTORE POP POP POP JUMP JUMPDEST PUSH1 0x0 PUSH2 0x1A13 PUSH2 0x17C1 JUMP JUMPDEST SWAP1 POP PUSH2 0x1A1F DUP3 DUP3 PUSH2 0x19D8 JUMP JUMPDEST SWAP2 SWAP1 POP JUMP JUMPDEST PUSH1 0x0 PUSH8 0xFFFFFFFFFFFFFFFF DUP3 GT ISZERO PUSH2 0x1A3F JUMPI PUSH2 0x1A3E PUSH2 0x19A9 JUMP JUMPDEST JUMPDEST PUSH2 0x1A48 DUP3 PUSH2 0x1998 JUMP JUMPDEST SWAP1 POP PUSH1 0x20 DUP2 ADD SWAP1 POP SWAP2 SWAP1 POP JUMP JUMPDEST DUP3 DUP2 DUP4 CALLDATACOPY PUSH1 0x0 DUP4 DUP4 ADD MSTORE POP POP POP JUMP JUMPDEST PUSH1 0x0 PUSH2 0x1A77 PUSH2 0x1A72 DUP5 PUSH2 0x1A24 JUMP JUMPDEST PUSH2 0x1A09 JUMP JUMPDEST SWAP1 POP DUP3 DUP2 MSTORE PUSH1 0x20 DUP2 ADD DUP5 DUP5 DUP5 ADD GT ISZERO PUSH2 0x1A93 JUMPI PUSH2 0x1A92 PUSH2 0x1993 JUMP JUMPDEST JUMPDEST PUSH2 0x1A9E DUP5 DUP3 DUP6 PUSH2 0x1A55 JUMP JUMPDEST POP SWAP4 SWAP3 POP POP POP JUMP JUMPDEST PUSH1 0x0 DUP3 PUSH1 0x1F DUP4 ADD SLT PUSH2 0x1ABB JUMPI PUSH2 0x1ABA PUSH2 0x198E JUMP JUMPDEST JUMPDEST DUP2 CALLDATALOAD PUSH2 0x1ACB DUP5 DUP3 PUSH1 0x20 DUP7 ADD PUSH2 0x1A64 JUMP JUMPDEST SWAP2 POP POP SWAP3 SWAP2 POP POP JUMP JUMPDEST PUSH1 0x0 PUSH1 0x20 DUP3 DUP5 SUB SLT ISZERO PUSH2 0x1AEA JUMPI PUSH2 0x1AE9 PUSH2 0x17CB JUMP JUMPDEST JUMPDEST PUSH1 0x0 DUP3 ADD CALLDATALOAD PUSH8 0xFFFFFFFFFFFFFFFF DUP2 GT ISZERO PUSH2 0x1B08 JUMPI PUSH2 0x1B07 PUSH2 0x17D0 JUMP JUMPDEST JUMPDEST PUSH2 0x1B14 DUP5 DUP3 DUP6 ADD PUSH2 0x1AA6 JUMP JUMPDEST SWAP2 POP POP SWAP3 SWAP2 POP POP JUMP JUMPDEST PUSH1 0x0 PUSH1 0x20 DUP3 DUP5 SUB SLT ISZERO PUSH2 0x1B33 JUMPI PUSH2 0x1B32 PUSH2 0x17CB JUMP JUMPDEST JUMPDEST PUSH1 0x0 PUSH2 0x1B41 DUP5 DUP3 DUP6 ADD PUSH2 0x1854 JUMP JUMPDEST SWAP2 POP POP SWAP3 SWAP2 POP POP JUMP JUMPDEST PUSH1 0x0 DUP2 MLOAD SWAP1 POP SWAP2 SWAP1 POP JUMP JUMPDEST PUSH1 0x0 DUP3 DUP3 MSTORE PUSH1 0x20 DUP3 ADD SWAP1 POP SWAP3 SWAP2 POP POP JUMP JUMPDEST PUSH1 0x0 JUMPDEST DUP4 DUP2 LT ISZERO PUSH2 0x1B84 JUMPI DUP1 DUP3 ADD MLOAD DUP2 DUP5 ADD MSTORE PUSH1 0x20 DUP2 ADD SWAP1 POP PUSH2 0x1B69 JUMP JUMPDEST PUSH1 0x0 DUP5 DUP5 ADD MSTORE POP POP POP POP JUMP JUMPDEST PUSH1 0x0 PUSH2 0x1B9B DUP3 PUSH2 0x1B4A JUMP JUMPDEST PUSH2 0x1BA5 DUP2 DUP6 PUSH2 0x1B55 JUMP JUMPDEST SWAP4 POP PUSH2 0x1BB5 DUP2 DUP6 PUSH1 0x20 DUP7 ADD PUSH2 0x1B66 JUMP JUMPDEST PUSH2 0x1BBE DUP2 PUSH2 0x1998 JUMP JUMPDEST DUP5 ADD SWAP2 POP POP SWAP3 SWAP2 POP POP JUMP JUMPDEST PUSH1 0x0 PUSH1 0x20 DUP3 ADD SWAP1 POP DUP2 DUP2 SUB PUSH1 0x0 DUP4 ADD MSTORE PUSH2 0x1BE3 DUP2 DUP5 PUSH2 0x1B90 JUMP JUMPDEST SWAP1 POP SWAP3 SWAP2 POP POP JUMP JUMPDEST PUSH1 0x0 PUSH8 0xFFFFFFFFFFFFFFFF DUP3 GT ISZERO PUSH2 0x1C06 JUMPI PUSH2 0x1C05 PUSH2 0x19A9 JUMP JUMPDEST JUMPDEST PUSH1 0x20 DUP3 MUL SWAP1 POP PUSH1 0x20 DUP2 ADD SWAP1 POP SWAP2 SWAP1 POP JUMP JUMPDEST PUSH1 0x0 DUP1 REVERT JUMPDEST PUSH1 0x0 PUSH2 0x1C2F PUSH2 0x1C2A DUP5 PUSH2 0x1BEB JUMP JUMPDEST PUSH2 0x1A09 JUMP JUMPDEST SWAP1 POP DUP1 DUP4 DUP3 MSTORE PUSH1 0x20 DUP3 ADD SWAP1 POP PUSH1 0x20 DUP5 MUL DUP4 ADD DUP6 DUP2 GT ISZERO PUSH2 0x1C52 JUMPI PUSH2 0x1C51 PUSH2 0x1C17 JUMP JUMPDEST JUMPDEST DUP4 JUMPDEST DUP2 DUP2 LT ISZERO PUSH2 0x1C7B JUMPI DUP1 PUSH2 0x1C67 DUP9 DUP3 PUSH2 0x1854 JUMP JUMPDEST DUP5 MSTORE PUSH1 0x20 DUP5 ADD SWAP4 POP POP PUSH1 0x20 DUP2 ADD SWAP1 POP PUSH2 0x1C54 JUMP JUMPDEST POP POP POP SWAP4 SWAP3 POP POP POP JUMP JUMPDEST PUSH1 0x0 DUP3 PUSH1 0x1F DUP4 ADD SLT PUSH2 0x1C9A JUMPI PUSH2 0x1C99 PUSH2 0x198E JUMP JUMPDEST JUMPDEST DUP2 CALLDATALOAD PUSH2 0x1CAA DUP5 DUP3 PUSH1 0x20 DUP7 ADD PUSH2 0x1C1C JUMP JUMPDEST SWAP2 POP POP SWAP3 SWAP2 POP POP JUMP JUMPDEST PUSH1 0x0 PUSH8 0xFFFFFFFFFFFFFFFF DUP3 GT ISZERO PUSH2 0x1CCE JUMPI PUSH2 0x1CCD PUSH2 0x19A9 JUMP JUMPDEST JUMPDEST PUSH2 0x1CD7 DUP3 PUSH2 0x1998 JUMP JUMPDEST SWAP1 POP PUSH1 0x20 DUP2 ADD SWAP1 POP SWAP2 SWAP1 POP JUMP JUMPDEST PUSH1 0x0 PUSH2 0x1CF7 PUSH2 0x1CF2 DUP5 PUSH2 0x1CB3 JUMP JUMPDEST PUSH2 0x1A09 JUMP JUMPDEST SWAP1 POP DUP3 DUP2 MSTORE PUSH1 0x20 DUP2 ADD DUP5 DUP5 DUP5 ADD GT ISZERO PUSH2 0x1D13 JUMPI PUSH2 0x1D12 PUSH2 0x1993 JUMP JUMPDEST JUMPDEST PUSH2 0x1D1E DUP5 DUP3 DUP6 PUSH2 0x1A55 JUMP JUMPDEST POP SWAP4 SWAP3 POP POP POP JUMP JUMPDEST PUSH1 0x0 DUP3 PUSH1 0x1F DUP4 ADD SLT PUSH2 0x1D3B JUMPI PUSH2 0x1D3A PUSH2 0x198E JUMP JUMPDEST JUMPDEST DUP2 CALLDATALOAD PUSH2 0x1D4B DUP5 DUP3 PUSH1 0x20 DUP7 ADD PUSH2 0x1CE4 JUMP JUMPDEST SWAP2 POP POP SWAP3 SWAP2 POP POP JUMP JUMPDEST PUSH1 0x0 DUP1 PUSH1 0x0 DUP1 PUSH1 0x0 PUSH1 0xA0 DUP7 DUP9 SUB SLT ISZERO PUSH2 0x1D70 JUMPI PUSH2 0x1D6F PUSH2 0x17CB JUMP JUMPDEST JUMPDEST PUSH1 0x0 PUSH2 0x1D7E DUP9 DUP3 DUP10 ADD PUSH2 0x181E JUMP JUMPDEST SWAP6 POP POP PUSH1 0x20 PUSH2 0x1D8F DUP9 DUP3 DUP10 ADD PUSH2 0x181E JUMP JUMPDEST SWAP5 POP POP PUSH1 0x40 DUP7 ADD CALLDATALOAD PUSH8 0xFFFFFFFFFFFFFFFF DUP2 GT ISZERO PUSH2 0x1DB0 JUMPI PUSH2 0x1DAF PUSH2 0x17D0 JUMP JUMPDEST JUMPDEST PUSH2 0x1DBC DUP9 DUP3 DUP10 ADD PUSH2 0x1C85 JUMP JUMPDEST SWAP4 POP POP PUSH1 0x60 DUP7 ADD CALLDATALOAD PUSH8 0xFFFFFFFFFFFFFFFF DUP2 GT ISZERO PUSH2 0x1DDD JUMPI PUSH2 0x1DDC PUSH2 0x17D0 JUMP JUMPDEST JUMPDEST PUSH2 0x1DE9 DUP9 DUP3 DUP10 ADD PUSH2 0x1C85 JUMP JUMPDEST SWAP3 POP POP PUSH1 0x80 DUP7 ADD CALLDATALOAD PUSH8 0xFFFFFFFFFFFFFFFF DUP2 GT ISZERO PUSH2 0x1E0A JUMPI PUSH2 0x1E09 PUSH2 0x17D0 JUMP JUMPDEST JUMPDEST PUSH2 0x1E16 DUP9 DUP3 DUP10 ADD PUSH2 0x1D26 JUMP JUMPDEST SWAP2 POP POP SWAP3 SWAP6 POP SWAP3 SWAP6 SWAP1 SWAP4 POP JUMP JUMPDEST PUSH1 0x0 PUSH8 0xFFFFFFFFFFFFFFFF DUP3 GT ISZERO PUSH2 0x1E3E JUMPI PUSH2 0x1E3D PUSH2 0x19A9 JUMP JUMPDEST JUMPDEST PUSH1 0x20 DUP3 MUL SWAP1 POP PUSH1 0x20 DUP2 ADD SWAP1 POP SWAP2 SWAP1 POP JUMP JUMPDEST PUSH1 0x0 PUSH2 0x1E62 PUSH2 0x1E5D DUP5 PUSH2 0x1E23 JUMP JUMPDEST PUSH2 0x1A09 JUMP JUMPDEST SWAP1 POP DUP1 DUP4 DUP3 MSTORE PUSH1 0x20 DUP3 ADD SWAP1 POP PUSH1 0x20 DUP5 MUL DUP4 ADD DUP6 DUP2 GT ISZERO PUSH2 0x1E85 JUMPI PUSH2 0x1E84 PUSH2 0x1C17 JUMP JUMPDEST JUMPDEST DUP4 JUMPDEST DUP2 DUP2 LT ISZERO PUSH2 0x1EAE JUMPI DUP1 PUSH2 0x1E9A DUP9 DUP3 PUSH2 0x181E JUMP JUMPDEST DUP5 MSTORE PUSH1 0x20 DUP5 ADD SWAP4 POP POP PUSH1 0x20 DUP2 ADD SWAP1 POP PUSH2 0x1E87 JUMP JUMPDEST POP POP POP SWAP4 SWAP3 POP POP POP JUMP JUMPDEST PUSH1 0x0 DUP3 PUSH1 0x1F DUP4 ADD SLT PUSH2 0x1ECD JUMPI PUSH2 0x1ECC PUSH2 0x198E JUMP JUMPDEST JUMPDEST DUP2 CALLDATALOAD PUSH2 0x1EDD DUP5 DUP3 PUSH1 0x20 DUP7 ADD PUSH2 0x1E4F JUMP JUMPDEST SWAP2 POP POP SWAP3 SWAP2 POP POP JUMP JUMPDEST PUSH1 0x0 DUP1 PUSH1 0x40 DUP4 DUP6 SUB SLT ISZERO PUSH2 0x1EFD JUMPI PUSH2 0x1EFC PUSH2 0x17CB JUMP JUMPDEST JUMPDEST PUSH1 0x0 DUP4 ADD CALLDATALOAD PUSH8 0xFFFFFFFFFFFFFFFF DUP2 GT ISZERO PUSH2 0x1F1B JUMPI PUSH2 0x1F1A PUSH2 0x17D0 JUMP JUMPDEST JUMPDEST PUSH2 0x1F27 DUP6 DUP3 DUP7 ADD PUSH2 0x1EB8 JUMP JUMPDEST SWAP3 POP POP PUSH1 0x20 DUP4 ADD CALLDATALOAD PUSH8 0xFFFFFFFFFFFFFFFF DUP2 GT ISZERO PUSH2 0x1F48 JUMPI PUSH2 0x1F47 PUSH2 0x17D0 JUMP JUMPDEST JUMPDEST PUSH2 0x1F54 DUP6 DUP3 DUP7 ADD PUSH2 0x1C85 JUMP JUMPDEST SWAP2 POP POP SWAP3 POP SWAP3 SWAP1 POP JUMP JUMPDEST PUSH1 0x0 DUP2 MLOAD SWAP1 POP SWAP2 SWAP1 POP JUMP JUMPDEST PUSH1 0x0 DUP3 DUP3 MSTORE PUSH1 0x20 DUP3 ADD SWAP1 POP SWAP3 SWAP2 POP POP JUMP JUMPDEST PUSH1 0x0 DUP2 SWAP1 POP PUSH1 0x20 DUP3 ADD SWAP1 POP SWAP2 SWAP1 POP JUMP JUMPDEST PUSH2 0x1F93 DUP2 PUSH2 0x1833 JUMP JUMPDEST DUP3 MSTORE POP POP JUMP JUMPDEST PUSH1 0x0 PUSH2 0x1FA5 DUP4 DUP4 PUSH2 0x1F8A JUMP JUMPDEST PUSH1 0x20 DUP4 ADD SWAP1 POP SWAP3 SWAP2 POP POP JUMP JUMPDEST PUSH1 0x0 PUSH1 0x20 DUP3 ADD SWAP1 POP SWAP2 SWAP1 POP JUMP JUMPDEST PUSH1 0x0 PUSH2 0x1FC9 DUP3 PUSH2 0x1F5E JUMP JUMPDEST PUSH2 0x1FD3 DUP2 DUP6 PUSH2 0x1F69 JUMP JUMPDEST SWAP4 POP PUSH2 0x1FDE DUP4 PUSH2 0x1F7A JUMP JUMPDEST DUP1 PUSH1 0x0 JUMPDEST DUP4 DUP2 LT ISZERO PUSH2 0x200F JUMPI DUP2 MLOAD PUSH2 0x1FF6 DUP9 DUP3 PUSH2 0x1F99 JUMP JUMPDEST SWAP8 POP PUSH2 0x2001 DUP4 PUSH2 0x1FB1 JUMP JUMPDEST SWAP3 POP POP PUSH1 0x1 DUP2 ADD SWAP1 POP PUSH2 0x1FE2 JUMP JUMPDEST POP DUP6 SWAP4 POP POP POP POP SWAP3 SWAP2 POP POP JUMP JUMPDEST PUSH1 0x0 PUSH1 0x20 DUP3 ADD SWAP1 POP DUP2 DUP2 SUB PUSH1 0x0 DUP4 ADD MSTORE PUSH2 0x2036 DUP2 DUP5 PUSH2 0x1FBE JUMP JUMPDEST SWAP1 POP SWAP3 SWAP2 POP POP JUMP JUMPDEST PUSH1 0x0 DUP1 PUSH1 0x0 DUP1 PUSH1 0x80 DUP6 DUP8 SUB SLT ISZERO PUSH2 0x2058 JUMPI PUSH2 0x2057 PUSH2 0x17CB JUMP JUMPDEST JUMPDEST PUSH1 0x0 PUSH2 0x2066 DUP8 DUP3 DUP9 ADD PUSH2 0x181E JUMP JUMPDEST SWAP5 POP POP PUSH1 0x20 PUSH2 0x2077 DUP8 DUP3 DUP9 ADD PUSH2 0x1854 JUMP JUMPDEST SWAP4 POP POP PUSH1 0x40 PUSH2 0x2088 DUP8 DUP3 DUP9 ADD PUSH2 0x1854 JUMP JUMPDEST SWAP3 POP POP PUSH1 0x60 DUP6 ADD CALLDATALOAD PUSH8 0xFFFFFFFFFFFFFFFF DUP2 GT ISZERO PUSH2 0x20A9 JUMPI PUSH2 0x20A8 PUSH2 0x17D0 JUMP JUMPDEST JUMPDEST PUSH2 0x20B5 DUP8 DUP3 DUP9 ADD PUSH2 0x1D26 JUMP JUMPDEST SWAP2 POP POP SWAP3 SWAP6 SWAP2 SWAP5 POP SWAP3 POP JUMP JUMPDEST PUSH2 0x20CA DUP2 PUSH2 0x17F5 JUMP JUMPDEST DUP3 MSTORE POP POP JUMP JUMPDEST PUSH1 0x0 PUSH1 0x20 DUP3 ADD SWAP1 POP PUSH2 0x20E5 PUSH1 0x0 DUP4 ADD DUP5 PUSH2 0x20C1 JUMP JUMPDEST SWAP3 SWAP2 POP POP JUMP JUMPDEST PUSH2 0x20F4 DUP2 PUSH2 0x1958 JUMP JUMPDEST DUP2 EQ PUSH2 0x20FF JUMPI PUSH1 0x0 DUP1 REVERT JUMPDEST POP JUMP JUMPDEST PUSH1 0x0 DUP2 CALLDATALOAD SWAP1 POP PUSH2 0x2111 DUP2 PUSH2 0x20EB JUMP JUMPDEST SWAP3 SWAP2 POP POP JUMP JUMPDEST PUSH1 0x0 DUP1 PUSH1 0x40 DUP4 DUP6 SUB SLT ISZERO PUSH2 0x212E JUMPI PUSH2 0x212D PUSH2 0x17CB JUMP JUMPDEST JUMPDEST PUSH1 0x0 PUSH2 0x213C DUP6 DUP3 DUP7 ADD PUSH2 0x181E JUMP JUMPDEST SWAP3 POP POP PUSH1 0x20 PUSH2 0x214D DUP6 DUP3 DUP7 ADD PUSH2 0x2102 JUMP JUMPDEST SWAP2 POP POP SWAP3 POP SWAP3 SWAP1 POP JUMP JUMPDEST PUSH1 0x0 DUP1 PUSH1 0x40 DUP4 DUP6 SUB SLT ISZERO PUSH2 0x216E JUMPI PUSH2 0x216D PUSH2 0x17CB JUMP JUMPDEST JUMPDEST PUSH1 0x0 PUSH2 0x217C DUP6 DUP3 DUP7 ADD PUSH2 0x181E JUMP JUMPDEST SWAP3 POP POP PUSH1 0x20 PUSH2 0x218D DUP6 DUP3 DUP7 ADD PUSH2 0x181E JUMP JUMPDEST SWAP2 POP POP SWAP3 POP SWAP3 SWAP1 POP JUMP JUMPDEST PUSH1 0x0 DUP1 PUSH1 0x0 DUP1 PUSH1 0x0 PUSH1 0xA0 DUP7 DUP9 SUB SLT ISZERO PUSH2 0x21B3 JUMPI PUSH2 0x21B2 PUSH2 0x17CB JUMP JUMPDEST JUMPDEST PUSH1 0x0 PUSH2 0x21C1 DUP9 DUP3 DUP10 ADD PUSH2 0x181E JUMP JUMPDEST SWAP6 POP POP PUSH1 0x20 PUSH2 0x21D2 DUP9 DUP3 DUP10 ADD PUSH2 0x181E JUMP JUMPDEST SWAP5 POP POP PUSH1 0x40 PUSH2 0x21E3 DUP9 DUP3 DUP10 ADD PUSH2 0x1854 JUMP JUMPDEST SWAP4 POP POP PUSH1 0x60 PUSH2 0x21F4 DUP9 DUP3 DUP10 ADD PUSH2 0x1854 JUMP JUMPDEST SWAP3 POP POP PUSH1 0x80 DUP7 ADD CALLDATALOAD PUSH8 0xFFFFFFFFFFFFFFFF DUP2 GT ISZERO PUSH2 0x2215 JUMPI PUSH2 0x2214 PUSH2 0x17D0 JUMP JUMPDEST JUMPDEST PUSH2 0x2221 DUP9 DUP3 DUP10 ADD PUSH2 0x1D26 JUMP JUMPDEST SWAP2 POP POP SWAP3 SWAP6 POP SWAP3 SWAP6 SWAP1 SWAP4 POP JUMP JUMPDEST PUSH1 0x0 PUSH1 0x20 DUP3 DUP5 SUB SLT ISZERO PUSH2 0x2244 JUMPI PUSH2 0x2243 PUSH2 0x17CB JUMP JUMPDEST JUMPDEST PUSH1 0x0 PUSH2 0x2252 DUP5 DUP3 DUP6 ADD PUSH2 0x181E JUMP JUMPDEST SWAP2 POP POP SWAP3 SWAP2 POP POP JUMP JUMPDEST PUSH32 0x455243313135353A2061646472657373207A65726F206973206E6F7420612076 PUSH1 0x0 DUP3 ADD MSTORE PUSH32 0x616C6964206F776E657200000000000000000000000000000000000000000000 PUSH1 0x20 DUP3 ADD MSTORE POP JUMP JUMPDEST PUSH1 0x0 PUSH2 0x22B7 PUSH1 0x2A DUP4 PUSH2 0x1B55 JUMP JUMPDEST SWAP2 POP PUSH2 0x22C2 DUP3 PUSH2 0x225B JUMP JUMPDEST PUSH1 0x40 DUP3 ADD SWAP1 POP SWAP2 SWAP1 POP JUMP JUMPDEST PUSH1 0x0 PUSH1 0x20 DUP3 ADD SWAP1 POP DUP2 DUP2 SUB PUSH1 0x0 DUP4 ADD MSTORE PUSH2 0x22E6 DUP2 PUSH2 0x22AA JUMP JUMPDEST SWAP1 POP SWAP2 SWAP1 POP JUMP JUMPDEST PUSH32 0x4E487B7100000000000000000000000000000000000000000000000000000000 PUSH1 0x0 MSTORE PUSH1 0x22 PUSH1 0x4 MSTORE PUSH1 0x24 PUSH1 0x0 REVERT JUMPDEST PUSH1 0x0 PUSH1 0x2 DUP3 DIV SWAP1 POP PUSH1 0x1 DUP3 AND DUP1 PUSH2 0x2334 JUMPI PUSH1 0x7F DUP3 AND SWAP2 POP JUMPDEST PUSH1 0x20 DUP3 LT DUP2 SUB PUSH2 0x2347 JUMPI PUSH2 0x2346 PUSH2 0x22ED JUMP JUMPDEST JUMPDEST POP SWAP2 SWAP1 POP JUMP JUMPDEST PUSH32 0x455243313135353A2063616C6C6572206973206E6F7420746F6B656E206F776E PUSH1 0x0 DUP3 ADD MSTORE PUSH32 0x6572206F7220617070726F766564000000000000000000000000000000000000 PUSH1 0x20 DUP3 ADD MSTORE POP JUMP JUMPDEST PUSH1 0x0 PUSH2 0x23A9 PUSH1 0x2E DUP4 PUSH2 0x1B55 JUMP JUMPDEST SWAP2 POP PUSH2 0x23B4 DUP3 PUSH2 0x234D JUMP JUMPDEST PUSH1 0x40 DUP3 ADD SWAP1 POP SWAP2 SWAP1 POP JUMP JUMPDEST PUSH1 0x0 PUSH1 0x20 DUP3 ADD SWAP1 POP DUP2 DUP2 SUB PUSH1 0x0 DUP4 ADD MSTORE PUSH2 0x23D8 DUP2 PUSH2 0x239C JUMP JUMPDEST SWAP1 POP SWAP2 SWAP1 POP JUMP JUMPDEST PUSH32 0x455243313135353A206163636F756E747320616E6420696473206C656E677468 PUSH1 0x0 DUP3 ADD MSTORE PUSH32 0x206D69736D617463680000000000000000000000000000000000000000000000 PUSH1 0x20 DUP3 ADD MSTORE POP JUMP JUMPDEST PUSH1 0x0 PUSH2 0x243B PUSH1 0x29 DUP4 PUSH2 0x1B55 JUMP JUMPDEST SWAP2 POP PUSH2 0x2446 DUP3 PUSH2 0x23DF JUMP JUMPDEST PUSH1 0x40 DUP3 ADD SWAP1 POP SWAP2 SWAP1 POP JUMP JUMPDEST PUSH1 0x0 PUSH1 0x20 DUP3 ADD SWAP1 POP DUP2 DUP2 SUB PUSH1 0x0 DUP4 ADD MSTORE PUSH2 0x246A DUP2 PUSH2 0x242E JUMP JUMPDEST SWAP1 POP SWAP2 SWAP1 POP JUMP JUMPDEST PUSH32 0x4E487B7100000000000000000000000000000000000000000000000000000000 PUSH1 0x0 MSTORE PUSH1 0x32 PUSH1 0x4 MSTORE PUSH1 0x24 PUSH1 0x0 REVERT JUMPDEST PUSH32 0x4E487B7100000000000000000000000000000000000000000000000000000000 PUSH1 0x0 MSTORE PUSH1 0x11 PUSH1 0x4 MSTORE PUSH1 0x24 PUSH1 0x0 REVERT JUMPDEST PUSH1 0x0 PUSH2 0x24DA DUP3 PUSH2 0x1833 JUMP JUMPDEST SWAP2 POP PUSH32 0xFFFFFFFFFFFFFFFFFFFFFFFFFFFFFFFFFFFFFFFFFFFFFFFFFFFFFFFFFFFFFFFF DUP3 SUB PUSH2 0x250C JUMPI PUSH2 0x250B PUSH2 0x24A0 JUMP JUMPDEST JUMPDEST PUSH1 0x1 DUP3 ADD SWAP1 POP SWAP2 SWAP1 POP JUMP JUMPDEST PUSH32 0x4F776E61626C653A206E6577206F776E657220697320746865207A65726F2061 PUSH1 0x0 DUP3 ADD MSTORE PUSH32 0x6464726573730000000000000000000000000000000000000000000000000000 PUSH1 0x20 DUP3 ADD MSTORE POP JUMP JUMPDEST PUSH1 0x0 PUSH2 0x2573 PUSH1 0x26 DUP4 PUSH2 0x1B55 JUMP JUMPDEST SWAP2 POP PUSH2 0x257E DUP3 PUSH2 0x2517 JUMP JUMPDEST PUSH1 0x40 DUP3 ADD SWAP1 POP SWAP2 SWAP1 POP JUMP JUMPDEST PUSH1 0x0 PUSH1 0x20 DUP3 ADD SWAP1 POP DUP2 DUP2 SUB PUSH1 0x0 DUP4 ADD MSTORE PUSH2 0x25A2 DUP2 PUSH2 0x2566 JUMP JUMPDEST SWAP1 POP SWAP2 SWAP1 POP JUMP JUMPDEST PUSH32 0x4F776E61626C653A2063616C6C6572206973206E6F7420746865206F776E6572 PUSH1 0x0 DUP3 ADD MSTORE POP JUMP JUMPDEST PUSH1 0x0 PUSH2 0x25DF PUSH1 0x20 DUP4 PUSH2 0x1B55 JUMP JUMPDEST SWAP2 POP PUSH2 0x25EA DUP3 PUSH2 0x25A9 JUMP JUMPDEST PUSH1 0x20 DUP3 ADD SWAP1 POP SWAP2 SWAP1 POP JUMP JUMPDEST PUSH1 0x0 PUSH1 0x20 DUP3 ADD SWAP1 POP DUP2 DUP2 SUB PUSH1 0x0 DUP4 ADD MSTORE PUSH2 0x260E DUP2 PUSH2 0x25D2 JUMP JUMPDEST SWAP1 POP SWAP2 SWAP1 POP JUMP JUMPDEST PUSH1 0x0 DUP2 SWAP1 POP DUP2 PUSH1 0x0 MSTORE PUSH1 0x20 PUSH1 0x0 KECCAK256 SWAP1 POP SWAP2 SWAP1 POP JUMP JUMPDEST PUSH1 0x0 PUSH1 0x20 PUSH1 0x1F DUP4 ADD DIV SWAP1 POP SWAP2 SWAP1 POP JUMP JUMPDEST PUSH1 0x0 DUP3 DUP3 SHL SWAP1 POP SWAP3 SWAP2 POP POP JUMP JUMPDEST PUSH1 0x0 PUSH1 0x8 DUP4 MUL PUSH2 0x2677 PUSH32 0xFFFFFFFFFFFFFFFFFFFFFFFFFFFFFFFFFFFFFFFFFFFFFFFFFFFFFFFFFFFFFFFF DUP3 PUSH2 0x263A JUMP JUMPDEST PUSH2 0x2681 DUP7 DUP4 PUSH2 0x263A JUMP JUMPDEST SWAP6 POP DUP1 NOT DUP5 AND SWAP4 POP DUP1 DUP7 AND DUP5 OR SWAP3 POP POP POP SWAP4 SWAP3 POP POP POP JUMP JUMPDEST PUSH1 0x0 DUP2 SWAP1 POP SWAP2 SWAP1 POP JUMP JUMPDEST PUSH1 0x0 PUSH2 0x26BE PUSH2 0x26B9 PUSH2 0x26B4 DUP5 PUSH2 0x1833 JUMP JUMPDEST PUSH2 0x2699 JUMP JUMPDEST PUSH2 0x1833 JUMP JUMPDEST SWAP1 POP SWAP2 SWAP1 POP JUMP JUMPDEST PUSH1 0x0 DUP2 SWAP1 POP SWAP2 SWAP1 POP JUMP JUMPDEST PUSH2 0x26D8 DUP4 PUSH2 0x26A3 JUMP JUMPDEST PUSH2 0x26EC PUSH2 0x26E4 DUP3 PUSH2 0x26C5 JUMP JUMPDEST DUP5 DUP5 SLOAD PUSH2 0x2647 JUMP JUMPDEST DUP3 SSTORE POP POP POP POP JUMP JUMPDEST PUSH1 0x0 SWAP1 JUMP JUMPDEST PUSH2 0x2701 PUSH2 0x26F4 JUMP JUMPDEST PUSH2 0x270C DUP2 DUP5 DUP5 PUSH2 0x26CF JUMP JUMPDEST POP POP POP JUMP JUMPDEST JUMPDEST DUP2 DUP2 LT ISZERO PUSH2 0x2730 JUMPI PUSH2 0x2725 PUSH1 0x0 DUP3 PUSH2 0x26F9 JUMP JUMPDEST PUSH1 0x1 DUP2 ADD SWAP1 POP PUSH2 0x2712 JUMP JUMPDEST POP POP JUMP JUMPDEST PUSH1 0x1F DUP3 GT ISZERO PUSH2 0x2775 JUMPI PUSH2 0x2746 DUP2 PUSH2 0x2615 JUMP JUMPDEST PUSH2 0x274F DUP5 PUSH2 0x262A JUMP JUMPDEST DUP2 ADD PUSH1 0x20 DUP6 LT ISZERO PUSH2 0x275E JUMPI DUP2 SWAP1 POP JUMPDEST PUSH2 0x2772 PUSH2 0x276A DUP6 PUSH2 0x262A JUMP JUMPDEST DUP4 ADD DUP3 PUSH2 0x2711 JUMP JUMPDEST POP POP JUMPDEST POP POP POP JUMP JUMPDEST PUSH1 0x0 DUP3 DUP3 SHR SWAP1 POP SWAP3 SWAP2 POP POP JUMP JUMPDEST PUSH1 0x0 PUSH2 0x2798 PUSH1 0x0 NOT DUP5 PUSH1 0x8 MUL PUSH2 0x277A JUMP JUMPDEST NOT DUP1 DUP4 AND SWAP2 POP POP SWAP3 SWAP2 POP POP JUMP JUMPDEST PUSH1 0x0 PUSH2 0x27B1 DUP4 DUP4 PUSH2 0x2787 JUMP JUMPDEST SWAP2 POP DUP3 PUSH1 0x2 MUL DUP3 OR SWAP1 POP SWAP3 SWAP2 POP POP JUMP JUMPDEST PUSH2 0x27CA DUP3 PUSH2 0x1B4A JUMP JUMPDEST PUSH8 0xFFFFFFFFFFFFFFFF DUP2 GT ISZERO PUSH2 0x27E3 JUMPI PUSH2 0x27E2 PUSH2 0x19A9 JUMP JUMPDEST JUMPDEST PUSH2 0x27ED DUP3 SLOAD PUSH2 0x231C JUMP JUMPDEST PUSH2 0x27F8 DUP3 DUP3 DUP6 PUSH2 0x2734 JUMP JUMPDEST PUSH1 0x0 PUSH1 0x20 SWAP1 POP PUSH1 0x1F DUP4 GT PUSH1 0x1 DUP2 EQ PUSH2 0x282B JUMPI PUSH1 0x0 DUP5 ISZERO PUSH2 0x2819 JUMPI DUP3 DUP8 ADD MLOAD SWAP1 POP JUMPDEST PUSH2 0x2823 DUP6 DUP3 PUSH2 0x27A5 JUMP JUMPDEST DUP7 SSTORE POP PUSH2 0x288B JUMP JUMPDEST PUSH1 0x1F NOT DUP5 AND PUSH2 0x2839 DUP7 PUSH2 0x2615 JUMP JUMPDEST PUSH1 0x0 JUMPDEST DUP3 DUP2 LT ISZERO PUSH2 0x2861 JUMPI DUP5 DUP10 ADD MLOAD DUP3 SSTORE PUSH1 0x1 DUP3 ADD SWAP2 POP PUSH1 0x20 DUP6 ADD SWAP5 POP PUSH1 0x20 DUP2 ADD SWAP1 POP PUSH2 0x283C JUMP JUMPDEST DUP7 DUP4 LT ISZERO PUSH2 0x287E JUMPI DUP5 DUP10 ADD MLOAD PUSH2 0x287A PUSH1 0x1F DUP10 AND DUP3 PUSH2 0x2787 JUMP JUMPDEST DUP4 SSTORE POP JUMPDEST PUSH1 0x1 PUSH1 0x2 DUP9 MUL ADD DUP9 SSTORE POP POP POP JUMPDEST POP POP POP POP POP POP JUMP JUMPDEST PUSH32 0x455243313135353A2069647320616E6420616D6F756E7473206C656E67746820 PUSH1 0x0 DUP3 ADD MSTORE PUSH32 0x6D69736D61746368000000000000000000000000000000000000000000000000 PUSH1 0x20 DUP3 ADD MSTORE POP JUMP JUMPDEST PUSH1 0x0 PUSH2 0x28EF PUSH1 0x28 DUP4 PUSH2 0x1B55 JUMP JUMPDEST SWAP2 POP PUSH2 0x28FA DUP3 PUSH2 0x2893 JUMP JUMPDEST PUSH1 0x40 DUP3 ADD SWAP1 POP SWAP2 SWAP1 POP JUMP JUMPDEST PUSH1 0x0 PUSH1 0x20 DUP3 ADD SWAP1 POP DUP2 DUP2 SUB PUSH1 0x0 DUP4 ADD MSTORE PUSH2 0x291E DUP2 PUSH2 0x28E2 JUMP JUMPDEST SWAP1 POP SWAP2 SWAP1 POP JUMP JUMPDEST PUSH32 0x455243313135353A207472616E7366657220746F20746865207A65726F206164 PUSH1 0x0 DUP3 ADD MSTORE PUSH32 0x6472657373000000000000000000000000000000000000000000000000000000 PUSH1 0x20 DUP3 ADD MSTORE POP JUMP JUMPDEST PUSH1 0x0 PUSH2 0x2981 PUSH1 0x25 DUP4 PUSH2 0x1B55 JUMP JUMPDEST SWAP2 POP PUSH2 0x298C DUP3 PUSH2 0x2925 JUMP JUMPDEST PUSH1 0x40 DUP3 ADD SWAP1 POP SWAP2 SWAP1 POP JUMP JUMPDEST PUSH1 0x0 PUSH1 0x20 DUP3 ADD SWAP1 POP DUP2 DUP2 SUB PUSH1 0x0 DUP4 ADD MSTORE PUSH2 0x29B0 DUP2 PUSH2 0x2974 JUMP JUMPDEST SWAP1 POP SWAP2 SWAP1 POP JUMP JUMPDEST PUSH32 0x455243313135353A20696E73756666696369656E742062616C616E636520666F PUSH1 0x0 DUP3 ADD MSTORE PUSH32 0x72207472616E7366657200000000000000000000000000000000000000000000 PUSH1 0x20 DUP3 ADD MSTORE POP JUMP JUMPDEST PUSH1 0x0 PUSH2 0x2A13 PUSH1 0x2A DUP4 PUSH2 0x1B55 JUMP JUMPDEST SWAP2 POP PUSH2 0x2A1E DUP3 PUSH2 0x29B7 JUMP JUMPDEST PUSH1 0x40 DUP3 ADD SWAP1 POP SWAP2 SWAP1 POP JUMP JUMPDEST PUSH1 0x0 PUSH1 0x20 DUP3 ADD SWAP1 POP DUP2 DUP2 SUB PUSH1 0x0 DUP4 ADD MSTORE PUSH2 0x2A42 DUP2 PUSH2 0x2A06 JUMP JUMPDEST SWAP1 POP SWAP2 SWAP1 POP JUMP JUMPDEST PUSH1 0x0 PUSH2 0x2A54 DUP3 PUSH2 0x1833 JUMP JUMPDEST SWAP2 POP PUSH2 0x2A5F DUP4 PUSH2 0x1833 JUMP JUMPDEST SWAP3 POP DUP3 DUP3 ADD SWAP1 POP DUP1 DUP3 GT ISZERO PUSH2 0x2A77 JUMPI PUSH2 0x2A76 PUSH2 0x24A0 JUMP JUMPDEST JUMPDEST SWAP3 SWAP2 POP POP JUMP JUMPDEST PUSH1 0x0 PUSH1 0x40 DUP3 ADD SWAP1 POP DUP2 DUP2 SUB PUSH1 0x0 DUP4 ADD MSTORE PUSH2 0x2A97 DUP2 DUP6 PUSH2 0x1FBE JUMP JUMPDEST SWAP1 POP DUP2 DUP2 SUB PUSH1 0x20 DUP4 ADD MSTORE PUSH2 0x2AAB DUP2 DUP5 PUSH2 0x1FBE JUMP JUMPDEST SWAP1 POP SWAP4 SWAP3 POP POP POP JUMP JUMPDEST PUSH32 0x455243313135353A206D696E7420746F20746865207A65726F20616464726573 PUSH1 0x0 DUP3 ADD MSTORE PUSH32 0x7300000000000000000000000000000000000000000000000000000000000000 PUSH1 0x20 DUP3 ADD MSTORE POP JUMP JUMPDEST PUSH1 0x0 PUSH2 0x2B10 PUSH1 0x21 DUP4 PUSH2 0x1B55 JUMP JUMPDEST SWAP2 POP PUSH2 0x2B1B DUP3 PUSH2 0x2AB4 JUMP JUMPDEST PUSH1 0x40 DUP3 ADD SWAP1 POP SWAP2 SWAP1 POP JUMP JUMPDEST PUSH1 0x0 PUSH1 0x20 DUP3 ADD SWAP1 POP DUP2 DUP2 SUB PUSH1 0x0 DUP4 ADD MSTORE PUSH2 0x2B3F DUP2 PUSH2 0x2B03 JUMP JUMPDEST SWAP1 POP SWAP2 SWAP1 POP JUMP JUMPDEST PUSH1 0x0 PUSH1 0x40 DUP3 ADD SWAP1 POP PUSH2 0x2B5B PUSH1 0x0 DUP4 ADD DUP6 PUSH2 0x18A9 JUMP JUMPDEST PUSH2 0x2B68 PUSH1 0x20 DUP4 ADD DUP5 PUSH2 0x18A9 JUMP JUMPDEST SWAP4 SWAP3 POP POP POP JUMP JUMPDEST PUSH32 0x455243313135353A2073657474696E6720617070726F76616C20737461747573 PUSH1 0x0 DUP3 ADD MSTORE PUSH32 0x20666F722073656C660000000000000000000000000000000000000000000000 PUSH1 0x20 DUP3 ADD MSTORE POP JUMP JUMPDEST PUSH1 0x0 PUSH2 0x2BCB PUSH1 0x29 DUP4 PUSH2 0x1B55 JUMP JUMPDEST SWAP2 POP PUSH2 0x2BD6 DUP3 PUSH2 0x2B6F JUMP JUMPDEST PUSH1 0x40 DUP3 ADD SWAP1 POP SWAP2 SWAP1 POP JUMP JUMPDEST PUSH1 0x0 PUSH1 0x20 DUP3 ADD SWAP1 POP DUP2 DUP2 SUB PUSH1 0x0 DUP4 ADD MSTORE PUSH2 0x2BFA DUP2 PUSH2 0x2BBE JUMP JUMPDEST SWAP1 POP SWAP2 SWAP1 POP JUMP JUMPDEST PUSH1 0x0 DUP2 MLOAD SWAP1 POP SWAP2 SWAP1 POP JUMP JUMPDEST PUSH1 0x0 DUP3 DUP3 MSTORE PUSH1 0x20 DUP3 ADD SWAP1 POP SWAP3 SWAP2 POP POP JUMP JUMPDEST PUSH1 0x0 PUSH2 0x2C28 DUP3 PUSH2 0x2C01 JUMP JUMPDEST PUSH2 0x2C32 DUP2 DUP6 PUSH2 0x2C0C JUMP JUMPDEST SWAP4 POP PUSH2 0x2C42 DUP2 DUP6 PUSH1 0x20 DUP7 ADD PUSH2 0x1B66 JUMP JUMPDEST PUSH2 0x2C4B DUP2 PUSH2 0x1998 JUMP JUMPDEST DUP5 ADD SWAP2 POP POP SWAP3 SWAP2 POP POP JUMP JUMPDEST PUSH1 0x0 PUSH1 0xA0 DUP3 ADD SWAP1 POP PUSH2 0x2C6B PUSH1 0x0 DUP4 ADD DUP9 PUSH2 0x20C1 JUMP JUMPDEST PUSH2 0x2C78 PUSH1 0x20 DUP4 ADD DUP8 PUSH2 0x20C1 JUMP JUMPDEST DUP2 DUP2 SUB PUSH1 0x40 DUP4 ADD MSTORE PUSH2 0x2C8A DUP2 DUP7 PUSH2 0x1FBE JUMP JUMPDEST SWAP1 POP DUP2 DUP2 SUB PUSH1 0x60 DUP4 ADD MSTORE PUSH2 0x2C9E DUP2 DUP6 PUSH2 0x1FBE JUMP JUMPDEST SWAP1 POP DUP2 DUP2 SUB PUSH1 0x80 DUP4 ADD MSTORE PUSH2 0x2CB2 DUP2 DUP5 PUSH2 0x2C1D JUMP JUMPDEST SWAP1 POP SWAP7 SWAP6 POP POP POP POP POP POP JUMP JUMPDEST PUSH1 0x0 DUP2 MLOAD SWAP1 POP PUSH2 0x2CCD DUP2 PUSH2 0x18FF JUMP JUMPDEST SWAP3 SWAP2 POP POP JUMP JUMPDEST PUSH1 0x0 PUSH1 0x20 DUP3 DUP5 SUB SLT ISZERO PUSH2 0x2CE9 JUMPI PUSH2 0x2CE8 PUSH2 0x17CB JUMP JUMPDEST JUMPDEST PUSH1 0x0 PUSH2 0x2CF7 DUP5 DUP3 DUP6 ADD PUSH2 0x2CBE JUMP JUMPDEST SWAP2 POP POP SWAP3 SWAP2 POP POP JUMP JUMPDEST PUSH1 0x0 DUP2 PUSH1 0xE0 SHR SWAP1 POP SWAP2 SWAP1 POP JUMP JUMPDEST PUSH1 0x0 PUSH1 0x3 RETURNDATASIZE GT ISZERO PUSH2 0x2D2C JUMPI PUSH1 0x4 PUSH1 0x0 DUP1 RETURNDATACOPY PUSH2 0x2D29 PUSH1 0x0 MLOAD PUSH2 0x2D00 JUMP JUMPDEST SWAP1 POP JUMPDEST SWAP1 JUMP JUMPDEST PUSH1 0x0 PUSH1 0x44 RETURNDATASIZE LT PUSH2 0x2DBC JUMPI PUSH2 0x2D41 PUSH2 0x17C1 JUMP JUMPDEST PUSH1 0x4 RETURNDATASIZE SUB PUSH1 0x4 DUP3 RETURNDATACOPY DUP1 MLOAD RETURNDATASIZE PUSH1 0x24 DUP3 ADD GT PUSH8 0xFFFFFFFFFFFFFFFF DUP3 GT OR ISZERO PUSH2 0x2D69 JUMPI POP POP PUSH2 0x2DBC JUMP JUMPDEST DUP1 DUP3 ADD DUP1 MLOAD PUSH8 0xFFFFFFFFFFFFFFFF DUP2 GT ISZERO PUSH2 0x2D87 JUMPI POP POP POP POP PUSH2 0x2DBC JUMP JUMPDEST DUP1 PUSH1 0x20 DUP4 ADD ADD PUSH1 0x4 RETURNDATASIZE SUB DUP6 ADD DUP2 GT ISZERO PUSH2 0x2DA4 JUMPI POP POP POP POP POP PUSH2 0x2DBC JUMP JUMPDEST PUSH2 0x2DB3 DUP3 PUSH1 0x20 ADD DUP6 ADD DUP7 PUSH2 0x19D8 JUMP JUMPDEST DUP3 SWAP6 POP POP POP POP POP POP JUMPDEST SWAP1 JUMP JUMPDEST PUSH32 0x455243313135353A207472616E7366657220746F206E6F6E2D45524331313535 PUSH1 0x0 DUP3 ADD MSTORE PUSH32 0x526563656976657220696D706C656D656E746572000000000000000000000000 PUSH1 0x20 DUP3 ADD MSTORE POP JUMP JUMPDEST PUSH1 0x0 PUSH2 0x2E1B PUSH1 0x34 DUP4 PUSH2 0x1B55 JUMP JUMPDEST SWAP2 POP PUSH2 0x2E26 DUP3 PUSH2 0x2DBF JUMP JUMPDEST PUSH1 0x40 DUP3 ADD SWAP1 POP SWAP2 SWAP1 POP JUMP JUMPDEST PUSH1 0x0 PUSH1 0x20 DUP3 ADD SWAP1 POP DUP2 DUP2 SUB PUSH1 0x0 DUP4 ADD MSTORE PUSH2 0x2E4A DUP2 PUSH2 0x2E0E JUMP JUMPDEST SWAP1 POP SWAP2 SWAP1 POP JUMP JUMPDEST PUSH32 0x455243313135353A204552433131353552656365697665722072656A65637465 PUSH1 0x0 DUP3 ADD MSTORE PUSH32 0x6420746F6B656E73000000000000000000000000000000000000000000000000 PUSH1 0x20 DUP3 ADD MSTORE POP JUMP JUMPDEST PUSH1 0x0 PUSH2 0x2EAD PUSH1 0x28 DUP4 PUSH2 0x1B55 JUMP JUMPDEST SWAP2 POP PUSH2 0x2EB8 DUP3 PUSH2 0x2E51 JUMP JUMPDEST PUSH1 0x40 DUP3 ADD SWAP1 POP SWAP2 SWAP1 POP JUMP JUMPDEST PUSH1 0x0 PUSH1 0x20 DUP3 ADD SWAP1 POP DUP2 DUP2 SUB PUSH1 0x0 DUP4 ADD MSTORE PUSH2 0x2EDC DUP2 PUSH2 0x2EA0 JUMP JUMPDEST SWAP1 POP SWAP2 SWAP1 POP JUMP JUMPDEST PUSH1 0x0 PUSH1 0xA0 DUP3 ADD SWAP1 POP PUSH2 0x2EF8 PUSH1 0x0 DUP4 ADD DUP9 PUSH2 0x20C1 JUMP JUMPDEST PUSH2 0x2F05 PUSH1 0x20 DUP4 ADD DUP8 PUSH2 0x20C1 JUMP JUMPDEST PUSH2 0x2F12 PUSH1 0x40 DUP4 ADD DUP7 PUSH2 0x18A9 JUMP JUMPDEST PUSH2 0x2F1F PUSH1 0x60 DUP4 ADD DUP6 PUSH2 0x18A9 JUMP JUMPDEST DUP2 DUP2 SUB PUSH1 0x80 DUP4 ADD MSTORE PUSH2 0x2F31 DUP2 DUP5 PUSH2 0x2C1D JUMP JUMPDEST SWAP1 POP SWAP7 SWAP6 POP POP POP POP POP POP JUMP INVALID LOG2 PUSH5 0x6970667358 0x22 SLT KECCAK256 0xDB SWAP10 SHR SWAP3 0x1F 0xB3 PREVRANDAO 0x2A SWAP8 0xA7 0xDD MSIZE 0xC0 0xF6 0x1F 0xCC 0xCF EXTCODEHASH SWAP6 0xE DUP1 0xFB SGT SWAP10 CALLDATACOPY PUSH25 0x55CAAA81435264736F6C634300081200330000000000000000 "
		},
		"gasEstimates": {
			"creation": {
				"codeDepositCost": "2429400",
				"executionCost": "infinite",
				"totalCost": "infinite"
			},
			"external": {
				"balanceOf(address,uint256)": "infinite",
				"balanceOfBatch(address[],uint256[])": "infinite",
				"isApprovedForAll(address,address)": "infinite",
				"mint(address,uint256,uint256,bytes)": "infinite",
				"owner()": "2589",
				"renounceOwnership()": "30421",
				"safeBatchTransferFrom(address,address,uint256[],uint256[],bytes)": "infinite",
				"safeTransferFrom(address,address,uint256,uint256,bytes)": "infinite",
				"setApprovalForAll(address,bool)": "infinite",
				"setURI(string)": "infinite",
				"supportsInterface(bytes4)": "796",
				"transferOwnership(address)": "30832",
				"uri(uint256)": "infinite"
			}
		},
		"methodIdentifiers": {
			"balanceOf(address,uint256)": "00fdd58e",
			"balanceOfBatch(address[],uint256[])": "4e1273f4",
			"isApprovedForAll(address,address)": "e985e9c5",
			"mint(address,uint256,uint256,bytes)": "731133e9",
			"owner()": "8da5cb5b",
			"renounceOwnership()": "715018a6",
			"safeBatchTransferFrom(address,address,uint256[],uint256[],bytes)": "2eb2c2d6",
			"safeTransferFrom(address,address,uint256,uint256,bytes)": "f242432a",
			"setApprovalForAll(address,bool)": "a22cb465",
			"setURI(string)": "02fe5305",
			"supportsInterface(bytes4)": "01ffc9a7",
			"transferOwnership(address)": "f2fde38b",
			"uri(uint256)": "0e89341c"
		}
	},
	"abi": [
		{
			"inputs": [],
			"stateMutability": "nonpayable",
			"type": "constructor"
		},
		{
			"anonymous": false,
			"inputs": [
				{
					"indexed": true,
					"internalType": "address",
					"name": "account",
					"type": "address"
				},
				{
					"indexed": true,
					"internalType": "address",
					"name": "operator",
					"type": "address"
				},
				{
					"indexed": false,
					"internalType": "bool",
					"name": "approved",
					"type": "bool"
				}
			],
			"name": "ApprovalForAll",
			"type": "event"
		},
		{
			"anonymous": false,
			"inputs": [
				{
					"indexed": true,
					"internalType": "address",
					"name": "previousOwner",
					"type": "address"
				},
				{
					"indexed": true,
					"internalType": "address",
					"name": "newOwner",
					"type": "address"
				}
			],
			"name": "OwnershipTransferred",
			"type": "event"
		},
		{
			"anonymous": false,
			"inputs": [
				{
					"indexed": true,
					"internalType": "address",
					"name": "operator",
					"type": "address"
				},
				{
					"indexed": true,
					"internalType": "address",
					"name": "from",
					"type": "address"
				},
				{
					"indexed": true,
					"internalType": "address",
					"name": "to",
					"type": "address"
				},
				{
					"indexed": false,
					"internalType": "uint256[]",
					"name": "ids",
					"type": "uint256[]"
				},
				{
					"indexed": false,
					"internalType": "uint256[]",
					"name": "values",
					"type": "uint256[]"
				}
			],
			"name": "TransferBatch",
			"type": "event"
		},
		{
			"anonymous": false,
			"inputs": [
				{
					"indexed": true,
					"internalType": "address",
					"name": "operator",
					"type": "address"
				},
				{
					"indexed": true,
					"internalType": "address",
					"name": "from",
					"type": "address"
				},
				{
					"indexed": true,
					"internalType": "address",
					"name": "to",
					"type": "address"
				},
				{
					"indexed": false,
					"internalType": "uint256",
					"name": "id",
					"type": "uint256"
				},
				{
					"indexed": false,
					"internalType": "uint256",
					"name": "value",
					"type": "uint256"
				}
			],
			"name": "TransferSingle",
			"type": "event"
		},
		{
			"anonymous": false,
			"inputs": [
				{
					"indexed": false,
					"internalType": "string",
					"name": "value",
					"type": "string"
				},
				{
					"indexed": true,
					"internalType": "uint256",
					"name": "id",
					"type": "uint256"
				}
			],
			"name": "URI",
			"type": "event"
		},
		{
			"inputs": [
				{
					"internalType": "address",
					"name": "account",
					"type": "address"
				},
				{
					"internalType": "uint256",
					"name": "id",
					"type": "uint256"
				}
			],
			"name": "balanceOf",
			"outputs": [
				{
					"internalType": "uint256",
					"name": "",
					"type": "uint256"
				}
			],
			"stateMutability": "view",
			"type": "function"
		},
		{
			"inputs": [
				{
					"internalType": "address[]",
					"name": "accounts",
					"type": "address[]"
				},
				{
					"internalType": "uint256[]",
					"name": "ids",
					"type": "uint256[]"
				}
			],
			"name": "balanceOfBatch",
			"outputs": [
				{
					"internalType": "uint256[]",
					"name": "",
					"type": "uint256[]"
				}
			],
			"stateMutability": "view",
			"type": "function"
		},
		{
			"inputs": [
				{
					"internalType": "address",
					"name": "account",
					"type": "address"
				},
				{
					"internalType": "address",
					"name": "operator",
					"type": "address"
				}
			],
			"name": "isApprovedForAll",
			"outputs": [
				{
					"internalType": "bool",
					"name": "",
					"type": "bool"
				}
			],
			"stateMutability": "view",
			"type": "function"
		},
		{
			"inputs": [
				{
					"internalType": "address",
					"name": "to",
					"type": "address"
				},
				{
					"internalType": "uint256",
					"name": "id",
					"type": "uint256"
				},
				{
					"internalType": "uint256",
					"name": "amount",
					"type": "uint256"
				},
				{
					"internalType": "bytes",
					"name": "data",
					"type": "bytes"
				}
			],
			"name": "mint",
			"outputs": [],
			"stateMutability": "nonpayable",
			"type": "function"
		},
		{
			"inputs": [],
			"name": "owner",
			"outputs": [
				{
					"internalType": "address",
					"name": "",
					"type": "address"
				}
			],
			"stateMutability": "view",
			"type": "function"
		},
		{
			"inputs": [],
			"name": "renounceOwnership",
			"outputs": [],
			"stateMutability": "nonpayable",
			"type": "function"
		},
		{
			"inputs": [
				{
					"internalType": "address",
					"name": "from",
					"type": "address"
				},
				{
					"internalType": "address",
					"name": "to",
					"type": "address"
				},
				{
					"internalType": "uint256[]",
					"name": "ids",
					"type": "uint256[]"
				},
				{
					"internalType": "uint256[]",
					"name": "amounts",
					"type": "uint256[]"
				},
				{
					"internalType": "bytes",
					"name": "data",
					"type": "bytes"
				}
			],
			"name": "safeBatchTransferFrom",
			"outputs": [],
			"stateMutability": "nonpayable",
			"type": "function"
		},
		{
			"inputs": [
				{
					"internalType": "address",
					"name": "from",
					"type": "address"
				},
				{
					"internalType": "address",
					"name": "to",
					"type": "address"
				},
				{
					"internalType": "uint256",
					"name": "id",
					"type": "uint256"
				},
				{
					"internalType": "uint256",
					"name": "amount",
					"type": "uint256"
				},
				{
					"internalType": "bytes",
					"name": "data",
					"type": "bytes"
				}
			],
			"name": "safeTransferFrom",
			"outputs": [],
			"stateMutability": "nonpayable",
			"type": "function"
		},
		{
			"inputs": [
				{
					"internalType": "address",
					"name": "operator",
					"type": "address"
				},
				{
					"internalType": "bool",
					"name": "approved",
					"type": "bool"
				}
			],
			"name": "setApprovalForAll",
			"outputs": [],
			"stateMutability": "nonpayable",
			"type": "function"
		},
		{
			"inputs": [
				{
					"internalType": "string",
					"name": "newuri",
					"type": "string"
				}
			],
			"name": "setURI",
			"outputs": [],
			"stateMutability": "nonpayable",
			"type": "function"
		},
		{
			"inputs": [
				{
					"internalType": "bytes4",
					"name": "interfaceId",
					"type": "bytes4"
				}
			],
			"name": "supportsInterface",
			"outputs": [
				{
					"internalType": "bool",
					"name": "",
					"type": "bool"
				}
			],
			"stateMutability": "view",
			"type": "function"
		},
		{
			"inputs": [
				{
					"internalType": "address",
					"name": "newOwner",
					"type": "address"
				}
			],
			"name": "transferOwnership",
			"outputs": [],
			"stateMutability": "nonpayable",
			"type": "function"
		},
		{
			"inputs": [
				{
					"internalType": "uint256",
					"name": "",
					"type": "uint256"
				}
			],
			"name": "uri",
			"outputs": [
				{
					"internalType": "string",
					"name": "",
					"type": "string"
				}
			],
			"stateMutability": "view",
			"type": "function"
		}
	]
}